ALAFITA                                 VARGAS                                  DIANA GABRIELA                          AAVD710805IMAM2013060100062349030EULOGIO AGUIRRE                              109       DEPORTIVA                                                   962803060108700                          VZ000623490000698122000000000233067750183303800111AAVD710805MVZLRN0719710805
ALEJANDRE                               PEREZ                                   LEIDY MARIANA                           AEPL770206FN5M2013060100046370430RUIZ CORTINEZ                                7         CENTRO                                                      925603060108700               80127770560VZ000463704000552104000000000109066200180903200111AEPL770206MVZLRD1219770206
ALVARADO                                DE LA GARZA                             MARIA ENRIQUETA                         AAGE770530I75M2013060100044348030XOMALLI                                      1         TLACOTENGO                                                  944783060108700                          VZ000443480000531880000000000112067760181203600111AAGE770530MVZLRN0819770530
CARDENAS                                NU?EZ                                   JUAN MARIO                              CANJ760523K55H2013060100098317030AV PRINCIPAL MODULO 1                        DEPTO     BALCONES DE XALAPA                                          911943060108700                          DF000983170001107934000000000290067800289014600111CANJ760523HDFRXN0119760523
CASTILLO                                ANDRADE                                 GUADALUPE                               CAAG750510EB0M2013060100059550030PROLONG. AV MEXICO                           LOTE      COLONIA REVOLUCI?N                                          911003060108700                          VZ000595500000683900000000000199067770160001900111CAAG750510MVZSND0419750510
DAVID                                   GUTIERREZ                               CARLOS                                  DAGC871211B31H2013060100019633430MORELOS                                      16        ZONA CENTRO                                                 920803060108700                          MC000196334000225816000000000239067780183904000111DAGC871211HMCVTR0819871211
GOMEZ                                   CARPIZO                                 JULIO CESAR                             GOCJ750730PI7H2013060100019633430PRIVADA J?PITER                              100       AMPLIACI?N 16 DE SEPTIEMBRE                                 895123060108700                          VZ000196334000225816000000000239067790183904000111GOCJ750730HVZMRL0919750730
JUAREZ                                  HERNANDEZ                               MARIBEL                                 JUHM6208157C7M2013040100066586610ABASOLO Y ALDAMA                                       CENTRO                                                      922003060108700               80976223976VZ000504444000726122000000000241021170184104200111JUHM620815MVZRRR0419620815
ORTEGA                                  MARTINEZ                                SELOMIT HEFZI-BA                        OEMS8610221D0M2013060100056711030HACIENDA CLAUDINAS                           29        LOMAS DE LA HACIENDA                                        916303060108700                          VZ000567110000655510000000000199067720110002100111OEMS861022MVZRRL0419861022
PEREZ                                   CRUZ                                    YAZMIN                                  PECY8508247Y0M2013051600053442030ANTONIO VENTURA                              S/N       4A SECCION                                                  922703060108700                          VZ000534420000598390000000000238067740383803800111PECY850824MVZRRZ0019850824
VICTORIA                                HERNANDEZ                               VERONICA                                VIHV760323997M2013060100059550030LIBERTAD                                     15                                                                         3060108700                          VZ000595500000683900000000000190067710189001900111VIHV760323MVZCRR0819760323
