ABAD                                    SANCHEZ                                 TERESA MARGARITA                        AAST8908021T1M2014080100033498030OYAMELES                                     113       PENSIONES                                                   965303060108700               80148991492VZ000334980000364530000000000218070730181803800111AAST890802MVZBNR0419890802
ALEJANDRE                               PEREZ                                   LEIDY MARIANA                           AEPL770206FN5M2014080100048179030RUIZ CORTINEZ                                7         CENTRO                                                      925603060108700               80127770560VZ000481790000570190000000000109066200180903200111AEPL770206MVZLRD1219770206
AMADOR                                  GUERRERO                                ROGELIO                                 AAGR730220PD5H2014080100048179030ALDAMA                                       S/N       LA BRISA                                                    920613060108700               80127307967VZ000481790000570190000000000102059030180203700111AAGR730220HVZMRG1719730220
ANTONIO                                 SANTOS                                  ENRIQUE                                 AOSE631114957H2014080100055749030ANTONIO SANTOS QUEVEDO                       300-A     CENTRO                                                      963803060108700               80126303314VZ000557490000630000000000000126060660182604700111AOSE631114HVZNNN0719631114
ARREOLA                                 PEREZ                                   RENE LUIS                               AEPR851127DQ2H2014080100074040030DOLORES                                      14        TAMARINDO                                                   960493060108700               80158552226VZ000740400000978572000000000231064140183103800111AEPR851127HVZRRN0619851127
CAMPOS                                  MORENO                                  IVONNE MONSERRAT                        CAMI870914R72M2014080100061700030GABRIEL HERNANDEZ                            22        AQUILES SERDAN                                              947203060108700               80148748777VZ000617000000815478000000000212063890181203800111CAMI870914MVZMRV0019870914
CARRILLO                                GARCIA                                  VICTOR HUGO                             CAGV870308TD1H2014080100058615030SANTOS DEGOLLADO                             S/N       CENTRO                                                      941403060108700               80148787957VZ000586150000774704000000000212064950181203800111CAGV870308HVZRRC0619870308
CARRILLO                                SALAZAR                                 NANCY MIREYA                            CASN850422191M2014080100071897010JORGE CERDAN DOS                             55        COLONIA EL MIRADOR                                          911703060108700               80118541061VZ000718970000958264000000000148057590484805200111CASN850422MVZRLN0719850422
CASTA?EDA                               VERA                                    JORGE ANUAR                             CAVJ8511036Y2H2014080100043190030CALLE GUADALAJARA                            215       HEROICA VERACRUZ                                            927303060108700               80148561121VZ000431900000481654000000000223062000282303800111CAVJ851103HVZSRR0319851103
CASTILLO                                HERNANDEZ                               MARTIN                                  CAHM870413CYAH2014080100027198030MORELOS                                      20        BARRIO DE GUADALUPE                                         950003060108700               80168741033VZ000271980000370568000000000249071420184904000111CAHM870413HVZSRR1919870413
COLORADO                                MOSQUEDA                                HUGO                                    COMH660921USAH2014080100020187010CALLE 40 A                                   2116      NUEVO CORDOBA                                               945503060108700               80126621624VZ000201870000203870000000000206065180180603800111COMH660921HVZLSG0719660921
CORIA                                   HEREDIA                                 ARLHET VIRIDIANA                        COHA7509306H1M2014080100092550030GRAL. VICENTE GUERRERO                       4 BIS     CENTRO                                                      941403060108700               80147512943VZ000925500001223216000000000256072220185603800111COHA750930MVZRRR0319750930
CORREA                                  CARDOZA                                 ANTOLIN                                 COCA8009022P0H2014080100020187010EMILIANO ZAPATA                                        SECTOR DON BOSCO                                            925603060108700               80098014782OC000201870000201870000000000213054520181304000111COCA800902HOCRRN0419800902
CRIOLLO                                 MARIN                                   ESBEIDI                                 CIME840705GY7M2014080100055749030PUENTE JULA                                  S/N       PUENTE JULA                                                 916743060108700               80148436431VZ000557490000630000000000000150060670185003600111CIME840705MVZRRS0519840705
CRUZ                                    CORTES                                  JOSE ALBERTO                            CUCA830424CC2H2014080100046077430SOL                                          18        20 DE NOVIEMBRE                                             920613060108700               80168300954VZ000460774000549174000000000102069620180203600111CUCA830424HVZRRL0319830424
CRUZ                                    PABLO                                   DAVID                                   CUPD610218IIAH2014080100046077430PRIVADA DE LAS FLORES                        3         PETROMEX                                                    932903060108700               80096100625VZ000460774000549174000000000114055400181403600111CUPD610218HVZRBV0919610218
CRUZ                                    ROSALES                                 FRANCISCO JAVIER                        CURF6912037W2H2014080100020398610SAN MIGUEL                                   S/N       PLATANAL                                                    921013060108700               80096920790VZ000203986000277928000000000255056750185504000111CURF691203HVZRSR0619691203
CUEVAS                                  SISNIEGA                                TERESA DEL NI?O JESUS                   CUST870512916M2014080100095635030FRANCISCO GONZALEZ BOCANEGRA                 95        NETZAHUALCOYOTL                                             936503060108700               80148705868VZ000956350001066520000000000228063560182803800111CUST870512MVZVSR0119870512
DAMIAN                                  MORALES                                 LUIS MANUEL                             DAML731022LAAH20140801000557490307 SUR                                        1A        EL NARANJITO                                                963403060108700               80907324760VZ000557490000630000000000000142072390184203600111DAML731022HVZMRS0719731022
DEL ANGEL                               GALLARDO                                JOSE JUAN                               AEGJ7807233R4H20140801000460774305 DE MAYO                                    S/N       RICARDO FLORES MAG?N                                        929003060108700               80137821288VZ000460774000549174000000000132068260183203600111AEGJ780723HVZNLN0119780723
DEL MORAL                               ZAVARIZ                                 BEATRIZ                                 MOZB680126M63M2014080100055749030DIAMANTE CALLE 2                             18 B-     FRACCIONAMIENTO JOYAS DE MOCAMBO                            942983060108700               80126825720VZ000557490000630000000000000150065360185004700111MOZB680126MVZRVT0119680126
DOMINGUEZ                               MOGOLLON                                EDGAR ARIEL                             DOME851117D59H2014080100020187030URSULO GALVAN                                42        CENTRO                                                      916853060108700               80168579268DG000201870000201870000000000236071070183604000111DOME851117HDGMGD0019851117
FERIA                                   PEREZ                                   TOLENTINO                               FEPT8109107P5H2014080100027198010FRANCISCO I MADERO                           S/N       SECTOR DON BOSCO                                            925603060108700               80108177322OC000271980000370568000000000213056580181304000111FEPT810910HOCRRL0419810910
FERNANDEZ                               DEL ANGEL                               JONATHAN                                FEAJ870601SZ0H2014080100024680010AV. FRANCISCO I. MADERO                      S/N       CENTRO                                                      924013060108700               80128735737DF000246800000326190000000000202058550180203800111FEAJ870601HDFRNN0119870601
FERNANDEZ                               HERNANDEZ                               NELLY MARGARITA                         FEHN920710DN3M20140801000201870105 DE MAYO                                    215  1    CENTRO                                                      936603060108700               80129233617PL000201870000201870000000000254063940185404000111FEHN920710MPLRRL0719920710
FRANCISCO                               HERNANDEZ                               JESUS ENRIQUE                           FAHJ670901556H2014080100046077430CALDERON DE LA BARCA                         400       18 DE MARZO                                                 921013060108700               80126724139VZ000460774000549174000000000155065300185503600111FAHJ670901HVZRRS0519670901
FRANCO                                  NAVARRO                                 BIANCA ANAVID                           FANB870413V11M2014080100058292410RAUL PEREZ HERRERA                           10        7 DE MAYO                                                   968103060108700               80118714544VZ000582924000655434000000000142057860184203200111FANB870413MVZRVN0019870413
GALLARDO                                MONTERRUBIO                             LETICIA                                 GAML720620V51M201408010006166921016 DE SEPTIEMBRE                             S/N       ZONA CENTRO                                                 928003060108700               80977269499VZ000481790000806226000000000109005390180903200111GAML720620MVZLNT0219720620
GARCIA                                  CABRALES                                EMMANUEL DAVID                          GACE871114PJ2H2014080100020187030JAVIER JUAREZ SANCHEZ                        4         LA BRISA                                                    920613060108700               80168741108TS000201870000244644000000000202071160180203800111GACE871114HTSRBM0819871114
GOMEZ                                   MELO                                    JORGE                                   GOMJ760406Q67H2014080100046077430AV. LOPEZ MATEOS                                  64   CENTRO                                                      927093060108700               80077646679VZ000460774000549174000000000122065570382203600111GOMJ760406HVZMLR0219760406
GONZALEZ                                CRUZ                                    IVAN                                    GOCI9009103K3H2014080100020398630MIGUEL HIDALGO                               15        CENTRO                                                      931403060108700               80139035879VZ000203986000233468000000000227067540182704000111GOCI900910HVZNRV0119900910
GONZALEZ                                MURCIA                                  MAURICIO                                GOMM910419MS6H2014080100046077430ANDADOR 2 ZONA 6                             20        UNIDAD LAS ARBOLEDAS                                        946493060108700                          VZ000460774000645888000000000129069990182904700111GOMM910419HVZNRR0419910419
GONZALEZ                                ZAMUDIO                                 RAFAEL                                  GOZR8305279K4H2014080100101805030HEROICO COLEGIO MILITAR                           100  COLEGIO MILITAR                                             936503060108700               80158321010VZ001018050001135328000000000228064150182803800111GOZR830527HVZNMF0819830527
GUTIERREZ                               REYES                                   LUCIO                                   GURL711213ND9H2014080100030850030DE LA ROSA                                   305       VILLALTA                                                    960263060108700               80137105633VZ000308500000407738000000000231067340183103800111GURL711213HVZTYC0819711213
HERNANDEZ                               CARDENAS                                NORMA DELIA                             HECN690928LK2M20140801000460774305TA EXHACIENDA TAMETATE                      146       EX. HACIENDA TAMETATE                                       921013060108700               80106912316VZ000460774000549174000000000119057790181903600111HECN690928MVZRRR0519690928
HERNANDEZ                               HERNANDEZ                               EDUARDO IVAN                            HEHE801010QX8H2014080100020187030JUAN LOPEZ                                   10-A      COLONIA ALVARO OBREG?N                                      910703060108700               80068001504VZ000201870000201870000000000235060710183504000111HEHE801010HVZRRD0319801010
HERNANDEZ                               MARTINEZ                                ZACARIAS                                HEMZ8311056I3H2014080100123400010CALLE 54                                     S/N       MATA TENATITO                                               949003060108700               80138333973VZ001234000001630954000000000207064900180703800111HEMZ831105HVZRRC0119831105
JIMENEZ                                 MARIN                                   ROBERTO                                 JIMR7706077MAH2014080100020187010AVENIDA PONIENTE 28                          287       CERRITOS                                                    943103060108700               80127767095VZ000201870000201870000000000206065220180603800111JIMR770607HVZMRB0119770607
JUNCAL                                  CRUZ                                    KARLA GUADALUPE                         JUCK880415TV8M2014080100046077410CALLE NOGAL                                  208       18 DE MARZO                                                 927303060108700               80128834720VZ000460774000645888000000000105060830180503600111JUCK880415MVZNRR0719880415
LANDA AMOROS                            LOPEZ                                   ARMANDO                                 LALA8803125Q8H2014080100021595010ENRIQUE Z. MERCADO                           122       COLONIA JUAN DE LA LUZ ENR?QUEZ                             911603060108700               80128865427VZ000215950000285418000000000235062520183503800111LALA880312HVZNPR0019880312
LEON                                    MONTERO                                 RAFAEL MARTIN                           LEMR770505F27H2014080100111060010AVENIDA UNO                                  47        INGENIO  PROVIDENCIA                                        949203060108700               80127724351VZ001110600001467860000000000247061660184703800111LEMR770505HVZNNF0519770505
LUGO                                    GOMEZ                                   SILVERIO VALENTE                        LUGS740420U68H2014080100046275030AV. SORJUANA INES DE LA CRUZ                 407       5 DE MAYO NUEVA                                             932503060108700               80017456502VZ000462750000516058000000000232065560183203800111LUGS740420HVZGML0319740420
LUNA                                    TZOPITL                                 ERIK VALENTIN                           LUTE870214SZ6H2014080100046275030AVENIDA 1                                    S/N       CENTRO                                                      948303060108700               80148788153VZ000462750000611608000000000249064960184903800111LUTE870214HVZNZR0519870214
MARTINEZ                                DE JESUS                                CARLOS ALBERTO                          MAJC8112246A4H2014080100048179030LAZARO CARDENAS                              408       AGRARIA                                                     962903060108700               80148110424VZ000481790000671324000000000133066430183303700111MAJC811224HVZRSR0919811224
MARTINEZ                                GRANILLO                                SUSANA                                  MAGS870513998M2014080100050685210SIMON BOLIVAR                                S/N       CENTRO                                                      949003060108700               80088753175VZ000460774000691966000000000107054740180703600111MAGS870513MVZRRS0319870513
MARTINEZ                                IGLESIAS                                MARIBEL                                 MAIM830208BS1M2014080100046077430CALLE REFORMA                                S/N       CENTRO                                                      949503060108700               80078389238VZ000460774000645888000000000149053410184903600111MAIM830208MVZRGR0719830208
MEDINA                                  AGUILAR                                 KARLA                                   MEAK850504R65M20140801000557490305 DE MAYO                                    1104      CAMPO NUEVO                                                 969803060108700               80168549816VZ000557490000630000000000000143069310184303600111MEAK850504MVZDGR0919850504
OLAYO                                   CARRASCO                                JOSE MIGUEL                             OACM841111389H2014080100020398630IGNACIO ALLENDE                              6         CENTRO                                                      949503060108700               80158439382VZ000203986000277928000000000247064330184704000111OACM841111HVZLRG0119841111
OROZCO                                  LOPEZ                                   ZURY SHARAI                             OOLZ850302JT3M2014080100020187030BENITO JUAREZ                                143  0    COMERCIAL                                                   963703060108700               80138510799VZ000201870000201870000000000244059330184403800111OOLZ850302MVZRPR0719850302
ORTEGA                                  MERAZ                                   MANUEL MARCELINO                        OEMM870116R75H2014080100046077430GERSAIN UGARTE                               26        20 DE NOVIEMBRE                                             924013060108700               80158799561TS000460774000549174000000000119069900181903600111OEMM870116HTSRRN0119870116
ORTEGA                                  SANCHEZ                                 ARIANA                                  OESA860406AY8M2014080100058922430PROL GUILLERMO PRIETO                        S/N       DON PEDRO                                                   958703060108700               80148660873VZ000589224000801364000000000116064050181602200111OESA860406MVZRNR0819860406
PENICHE                                 PREZAS                                  CARLOS                                  PEPC731024Q84H2014080100063588630FERRER                                       114       CENTRO                                                      936503060108700               80037323815VZ000635886000715122000000000228045000182803800111PEPC731024HVZNRR0619731024
PEREDA                                  RAMON                                   LUISA                                   PERL680928SH5M2014080100046077430CALLEJON LUIS DONALDO COLOSIO                61        AMPLIACION DEPORTIVA                                        962803060108700               80136800499OC000460774000645888000000000131066400183103600111PERL680928MOCRMS0419680928
RAMIREZ                                 LURIA                                   ROSA ELIA                               RALR800812994M2014080100085606030PROLONGACION 16 DE SEPTIEMBRE                11        OBRERA                                                      963703060108700               80148044896VZ000856060000931576000000000244070550184403800111RALR800812MVZMRS1519800812
RASSO                                   CABRERA                                 PERLA                                   RACP820218R89M2014080100043190010BENITO JUAREZ                                4         CENTRO                                                      926803060108700               80118230426VZ000431900000570834000000000210057290181003800111RACP820218MVZSBR0319820218
REYES                                   SANCHEZ                                 CUAUHTEMOC                              RESC670526549H2014080100046077430AV. VERACRUZ                                 13        ANAHUAC                                                     932703060108700               80146705175VZ000460774000549174000000000124071390182403600111RESC670526HVZYNH0619670526
RISSO                                   JUAREZ                                  ZAIRA                                   RIJZ830823IV8M2014080100061872410AVENIDA SEIS                                 1313      CENTRO                                                      945003060108700               80168316786VZ000618724000837004000000000112070710181201900111RIJZ830823MVZSRR0319830823
RIVERA                                  MENDOZA                                 BONIFACIO                               RIMB850425HC4H2014080100020187030PETROLERA                                    41        LA GLORIA                                                   920613060108700               80158596512VZ000201870000206424000000000255066900185503800111RIMB850425HVZVNN0019850425
RODRIGUEZ                               GARCIA                                  ALDO FELIPE                             ROGA930608114H2014080100046077430PRIVADA JORULLO                              202       SAN ANTONIO                                                 893473060108700               80149308183TS000460774000549174000000000119071120181903600111ROGA930608HTSDRL0219930608
RODRIGUEZ                               PULIDO                                  ARTURO                                  ROPA770325CXAH2014080100064785030PROLONGACION INDEPENDENCIA                   10        INFONAVIT FERROCARRILEROS                                   951003060108700               80127767137VZ000647850000856252000000000240065020184003800111ROPA770325HVZDLR1719770325
ROSAS                                   MEZA                                    RUTH                                    ROMR770430SL1M2014080100046077430PROGRESO                                     129       SAN JOSE                                                    916703060108700               80137723369VZ000460774000645888000000000111068810181103600111ROMR770430MVZSZT0119770430
SALAZAR                                 SANTOS                                  SINAI                                   SASS800904Q53M2014080100020187030ALTOTONGA                                    19        GUAYACANAL                                                  967803060108700               80148040621VZ000201870000244644000000000245070160184503800111SASS800904MVZLNN0019800904
SANCHEZ                                 AGUILAR                                 MANUEL DE JESUS                         SAAM6403278S5H2014080100020187010PABLO L. SIDAR                               125       BARRIO DE LAS FLORES                                        969803060108700               80896461177VZ000201870000201870000000000243021500184304200111SAAM640327HVZNGN0219640327
SANCHEZ                                 GUZMAN                                  TERESA                                  SAGT761015JA6M2014080100049360030R?MULO ESCOBAR                               S/N       DEL VALLE                                                   921013060108700               80127659177VZ000493600000550462000000000255065290185503800111SAGT761015MVZNZR0019761015
SANTIAGO                                DORANTES                                MAYOLA                                  SADM630429Q19M2014080100044664010SUPERMANZANA 2 MANZANA 2                     3         GUADALUPE TEPEYEC                                           967703060108700               80086308261VZ000446640000486040000000000234012550183403800111SADM630429MVZNRY0419630429
TELLEZ                                  HERRERA                                 ADELA                                   TEHA8509029J5M2014080100020187030AV. BENITO JUAREZ                            1         BARRIO DEL SE?OR DEL RECUERDO                               950003060108700               80168535575VZ000201870000201870000000000249068660184903800111TEHA850902MVZLRD0419850902
TEPETLA                                 QUIROZ                                  JULIO                                   TEQJ8001084V1H2014080100027198030MIGUEL ALEMAN                                13        CENTRO                                                      912403060108700               80148026612VZ000271980000370568000000000258068640185804000111TEQJ800108HVZPRL0919800108
TOLEDO                                  GREEN                                   ANDRES ALEJANDRO                        TOGA930201AG6H2014080100058292430MIGUEL ALEMAN                                63        BUENA VISTA NTE                                             968483060108700               80139321808VZ000582924000655434000000000142069680184203700111TOGA930201HVZLRN0119930201
TORRES                                  AZAMAR                                  ADRIANA                                 TOAA770730FXAM2014080100048179030CINCO DE MAYO                                104       CENTRO                                                      959803060108700               80977726183VZ000481790000671324000000000153066420185303700111TOAA770730MVZRZD0019770730
UTRERA                                  RIVEYRO                                 CARMEN DEL ROCIO                        UERC8601128E9M2014080100098720030DEMOCRACIA                                   S/N       CENTRO                                                      958703060108700               80148661004VZ000987200001304764000000000216064250181603800111UERC860112MVZTVR0919860112
VALDIVIA                                REALI                                   MARCOS                                  VARM870425873H2014080100092550030AVENIDA 33                                   2925      SAN MARTIN                                                  946703060108700               80148793773VZ000925500001223216000000000246065920184603800111VARM870425HVZLLR0519870425
VAZQUEZ                                 LEDEZMA                                 SERVANDO                                VALS691231QV9H2014080100085410810BOULEVARD RAYMUNDO MARTINEZ                  37        EJ. PUEBLO NUEVO                                            927303060108700               80976946436VZ000628020001054292000000000205003690180504200111VALS691231HVZZDR0719691231
VIVES                                   MELENDEZ                                MAYTE JAZMIN                            VIMM890310R40M2014080100027765030TLAXCALA                                     32        RUIZ CORTINEZ                                               967903060108700               80148908140VZ000277650000366964000000000233067330183303800111VIMM890310MVZVLY0919890310
