201223AAAL660224P98ALARCON ALTAMIRANO LUZ DEL CARMEN  00001559120051970700000850
201223AAAR690902TT1AZAMAR AGUILAR RAUL                00001061680035389300000850
201223AACC6909104G6AMADOR CABANZO CARLOS              00001865940062198000000850
201223AACC7410307R8ALFARO CASTILLO CLAUDIA DEL CARMEN 00000797170026572300000850
201223AAEL690105P46ALCAZAR ESQUIVEL MARIA LETICIA     00001880520062684000000850
201223AAEP720128S10ALVAREZ ENRIQUEZ PEDRO             00003085560102852000000850
201223AALS631017GI6ANDRADE LARA SALOMON               00001688430056281000000850
201223AAMA730104MC1ALVAREZ MARCIAL AURORA             00001220930040697700000850
201223AAMB7011101I4ANDRADE MARTINEZ BLANCA MARGARITA  00001168550038951700000850
201223AAMR550830TB2ALARCON MORA RUBEN                 00000839810027993700000850
201223AARA8008176X5AYALA RIOS MARIA DE LOS ANGELES    00002555480085182700000850
201223AARG760329483AYALA RIOS GUILLERMINA             00002415000080500000000850
201223AARL7501261H9AMADOR RANGEL LORENA               00001164440038814700000850
201223AASL700926PH3ALVAREZ DE LOS SANTOS LUCIA        00001129020037634000000850
201223AEAE740917DU5ACEVEDO AGUILAR EDUARDO            00001499100049970000000850
201223AEGJ650805V96ALEMAN GUZMAN JORGE                00002761690092056300000850
201223AEGM8203161P7DEL ANGEL GALLARDO MARY ANSELMA    00001372950045765000000850
201223AEJV620916425ARRES JIMENEZ MARIA VICTORIA       00003620180120672700000850
201223AELE660428G49ALEJANDRO LOPEZ EDILIA             00005003020166767300000850
201223AEMA68012293AABREU MARTINEZ MARIA DE LOS ANGELES00001336070044535700000850
201223AEQL631219CA2ARENAS QUESADA MARIA DE LOURDES    00001396220046540700000850
201223AESN5204206Y4DE ALMEIDA SILVA NADIA MARIA       00001896470063215700000850
201223AIBP7608256B1ANIMAS BETANCOURT PATRICIA         00001095320036510700000850
201223AIEE700105N48AVILES ESCALANTE EUSEBIO GERARDO   00001061610035387000000850
201223AIGA691218G65ANTILLON GONZALEZ ANA ELISA        00001452900048430000000850
201223AIHJ640711AG2ARRIAGA HERVERT JAVIER             00002090650069688300000850
201223AILA800703K81ARIZMENDI LIMA ANGIE MAYTHE        00003256100108536700000850
201223AILL640923GH3ALVIZAR LOPEZ LINA                 00000396970013232300000850
201223AIOR631028V76ARRIETA OCHOA RAUL                 00000628470125694000000850
201223AIRS720121HZ0AVILA RIOS SUSANA                  00001163520038784000000850
201223AISJ8012158B6ARIAS SANTOS JENY MARGARITA        00000383240012774700000850
201223AOAS630210956ALOR ANTONIO SILVIA                00002106570070219000000850
201223AOCJ6903274L2APONTE CUACUA JUAN ADOLFO          00001097060036568700000850
201223AOCJ720803EG3ALOR CASTILLO JUANA DEL ROSARIO    00001541960051398700000850
201223AOFM690407GJAARCOS FIERRO MONICA                00001380260046008700000850
201223AOGA860415TB3ARCOS GAMBOA AGUSTIN               00001041270034709000000850
201223AOHA6112158M0ACOSTA HERNANDEZ ARTURO            00001336070044535700000850
201223AOHC621001NA6ACOSTA HERNANDEZ CARLOS            00002339460077982000000850
201223AOHM731204DL5ANTONIO HERRERA MOISES             00000059310001977000000000
201223AOLF630715N84ANTONIO LOPEZ FRANCO               00006877440229248000000850
201223AOSA500219FR8ANTONIO SANTOS ALVARO              00000940660031355300000850
201223AOSM670902NI8ANOTA SANCHEZ MARTHA ELIZABETH     00001363690045456300000850
201223AOVA570827PLAARCOS VERA ARMANDO                 00000793940026464700000850
201223AOVF661102AW4ANTONIO VIDAL FREDY                00001063870035462300000850
201223AUCI6912246W9AGUILAR CASTILLO MARIA IRMA        00001115650037188300000850
201223AUGC770525SK7AGUILAR GARCIA CECILIA DE LOS ANGEL00002017460067248700000850
201223AUMM701103HZ2AGUILAR MARTINEZ MARTIN            00001817060060568700000850
201223AUNJ720210A58AGUILAR NOCHEBUENA JOEL            00001419500047316700000850
201223AUOG560223MU7AQUINO ORDAZ GENARO                00001013450033781700000850
201223AURJ5712067F4ARGUELLES RAMOS JAIME              00001970770065692300000850
201223BAAH5710312T1BRAVO AZAMAR HECTOR                00001489310049643700000850
201223BAAJ840112AT5BASTERRA ARIZA JACQUELINE          00001372950045765000000850
201223BACM611115IQ2BARAJAS CRUZ MARTHA ELENA          00003134930104497700000850
201223BADO790227DX9BARRADAS DOMINGUEZ OSVALDO         00003620180120672700000850
201223BAFO710605UU8BARRERA FLORES OCTAVIO             00001986530066217700000850
201223BAGA680805EB3BAUTISTA GARCIA ABEL               00002148120071604000000850
201223BAME700706L34BASTARD MIJANGOS ERIKA ISABEL OSIRI00003261450108715000000850
201223BAMN740114B36BALBUENA MORA NOEL                 00000513710017123700000850
201223BAPA760728I63BAUTISTA PEREZ ARMIDA              00001939050064635000000850
201223BARA551103PN8BASALDUA RODRIGUEZ ARTURO          00003223430107447700000850
201223BASO7207057K0BRAVO SANCHEZ OSWALDO GASTON       00002510320083677300000850
201223BECJ730601NFABENITEZ CHIMAL JOSEFINA            00001279870042662300000850
201223BECL760713AEABETANZOS CORONADO LILIANA          00000854260028475300000850
201223BEGC6301249I1BECERRA GARCIA MARIA DEL CARMEN    00001897000063233300000850
201223BEGR8010134W5BELTRAN GARCIA RUBI BIVIANA        00000942180031406000000850
201223BELL580810DJABEZARES LOPEZ LUIS REY             00001318810043960300000850
201223BEOE520319GX6BENAVIDES ORTUNO ELEUTERIA         00000936930031231000000850
201223BESB7010081D9BERNAL SOBREVILLA BLANCA ESTELA    00002833340094444700000850
201223BESC460220IYABERRONES SANFILIPPO JOSE CARLOS    00001996710066557000000850
201223BOOR7709248X9BOJORQUEZ ORTIZ RAUL FERNANDO      00004282610142753700000850
201223BOPF720707GL4BONILLA PRADO FERMIN               00000653540021784700000850
201223BOYO680210B32BORBOA YANES OLGA                  00001393450046448300000850
201223BUMJ670215CN1BURGOS MORALES JORGE LUIS          00002034940067831300000850
201223BUMP540228N20BURGOS MORALES MARIA DEL PILAR     00002751330091711000000850
201223BURA690210QP0BUSTAMANTE RUIZ ADRIANA            00001858150061938300000850
201223BURI670927JU7BUSTAMANTE RUIZ IRMA ISABEL        00000809150026971700000850
201223BURV660111EE1BUSTAMANTE RUIZ VERONICA HORTENCIA 00001132460037748700000850
201223CAAE660806A31CHAVEZ ANGELES EDUARDO             00003620180120672700000850
201223CAAE7302148A3CASTRO ACEVEDO ESMERALDA           00001112170037072300000850
201223CAAE791018DB4CANCINO ACUNA ENRIQUE              00001591980053066000000850
201223CAAN6804154W8CANO AGUIRRE NORA                  00001807040060234700000850
201223CAAR640508NJ3CASTELLANOS ARAN ROBERTO           00000936930031231000000850
201223CABF560216PC9CASTILLO BLASCO FRIEDA             00000617510020583700000850
201223CABJ721111625CHAVEZ BASURTO MARIA DE JESUS      00002953980098466000000850
201223CACC710116N60CARRILLO CONSUEGRA CARLOS MELESIO  00003388370112945700000850
201223CACC7108143H4CAMARENA CRESPO CLAUDIA            00003850620128354000000850
201223CACH6109281V0CASTELLANOS CORDOVA HERIBERTO      00005055380168512700000850
201223CACI820423U77CARRERA CALDERON ISRAEL            00000812930027097700000850
201223CACL690210MJ4CAMAS CEBALLOS MARIA DE LOURDES    00003670060122335300000850
201223CACP720603VA2CANCINO CRUZ PABLO                 00002858690095289700000850
201223CACR721025TN6CANO CRUZ ROCIO DEL YAZMIN         00001892210063073700000850
201223CACS560103TQ4CASTRO CASTILLO SOCORRO            00002586390086213000000850
201223CACS651128KT1CARRASCO CRUZ SILVIA               00004925000164166700000850
201223CAFD711208INACANCINO FLORES DANIEL GERARDO      00002198330073277700000850
201223CAFG670625LZ1CANCINO FLORES GUILLERMINA ARACELI 00001942610064753700000850
201223CAFR650721PW8CACERES FLORES ROSA ELENA          00001405260046842000000850
201223CAGN711110DH3CAPISTRAN GARCIA NINFA             00002497490083249700000850
201223CAGX8601168W8CARRISALES GARCIA ADRIAN ISIDRO    00000943660031455300000850
201223CAHE720112KP1CARDOSO HUERTA MARIA EUGENIA       00001078460035948700000850
201223CAHR680309SC8CASANOVA HERNANDEZ MARIA DEL ROSARI00001393450046448300000850
201223CALC640408LH3CARDENAS LUNA CARLOS               00003331010111033700000850
201223CALE700516GY4CHACON LOPEZ EMILIANO              00003119070103969000000850
201223CAMG730814V3ACASTILLO MENDOZA GUADALUPE         00001129020037634000000850
201223CAML720705G23CARRETO MENDEZ MARIA DE LA LUZ     00001559120051970700000850
201223CAMM690311ICACHACON MENDOZA MYRNA               00000973200032440000000850
201223CAMO7508147Q8CHAVEZ MUNOZ JOSE OCTAVIO          00000972130032404300000850
201223CAMP691012EW2CASTILLO MORALES PILAR AMERICA     00001304940043498000000850
201223CAPO5911046J9CASTILLO PALENCIA OFELIA           00003697700123256700000850
201223CAPZ7605106YACAPISTRAN PEREZ ZENAIDA            00001043980034799300000850
201223CARG651214J19CAMPOS RODRIGUEZ GUILLERMO         00002979790099326300000850
201223CARH690429MG8CARLOS ROMERO HUGO                 00002716870090562300000850
201223CARI670909HAACASTELLANOS RUIZ ISABEL CRISTINA   00001582390052746300000850
201223CARJ690816NI7CABRERA RAYON JOAQUIN              00001079750035991700000850
201223CARV6502027N4CASTELLANOS RUIZ VICENTE           00000909380030312700000850
201223CASM640121JP4CHAVEZ SANCHEZ MEINARDA            00003052580101752700000850
201223CATG700202QB5CAMPOS TERAN GLADIS FABIOLA        00001455800048526700000000
201223CATJ6109274E0CASTELLANOS TEJEDA JUDITH          00003038810101293700000850
201223CATJ710122965CARDENAS TORRES MARIA DE JESUS     00001559120051970700000850
201223CATV750510F53CARRION TADEO VICTOR MANUEL        00002491050083035000000850
201223CAVA700409TG6CASTILLA VARGAS ANGELICA           00002531860084395300000850
201223CAVD5912122V2CASTILLO VASQUEZ DELFINO           00000396670013222300000850
201223CAVE620604TY6CABRERA VAZQUEZ ERNESTINA          00001845900061530000000850
201223CAZM800913LC0CASTELLANOS ZUCCOLOTTO MONSERRAT   00000884730029491000000850
201223CEAA651128IRACESPEDES ARTEAGA ANA BERTHA        00001970770065692300000850
201223CESS711209CM5CERRILLO SANCHEZ SOFIA DE LOURDES  00002775620092520700000850
201223CIBR720210T17CHICUELLAR BERRIEL RAFAEL          00000419480013982700000850
201223CIMC691226A97CRIOLLO MARIN CARMEN CLAUDIA       00003095070103169000000850
201223CIMK790707PW3CISNEROS MORAN KARINA              00000817010027233700000850
201223COAJ7307122A0CORONEL DEL ANGEL JOEL             00001478000049266700000850
201223COBE610714GG2CONDE BAROJAS ENRIQUE              00004259130141971000000850
201223COBM671103HK0CORTAZA BARAHONA MARTIN ANTONIO    00001585470052849000000850
201223CODJ501206283COBOS DELFIN JORGE AUGUSTO         00002852950095098300000850
201223CODY780209IK3COBOS DOMINGUEZ YOLANDA PATRICIA   00001027910034263700000850
201223COFL6409219T6CORDOVA FONSECA LETICIA            00001047990034933000000850
201223COFL651129NF6CORTES FLORES LUZ DEL CARMEN       00002729170090972300000850
201223COHA7105042DACONTRERAS HERNANDEZ ALEJANDRO      00002876390095879700000850
201223COHG820916J89CORTES HUETO GABRIEL               00000960510032017000000850
201223COHO690920QT8CORONADO HERNANDEZ OLGA LIDIA      00001603280053442700000850
201223COLG690918TG2CONTRERAS LOEZA GUILLERMO          00001145870038195700000850
201223COLM7103298Y8COBILT LANDA MARCOS DANIEL         00003388370112945700000850
201223COMS610908T14CONTRERAS MORA SERGIO ADRIAN       00000722760024092000000850
201223COPL720819CH9CORTES PULIDO LUIS MANUEL          00001167840038928000000850
201223CORC760812EW2CORONA RIVERA CLARA                00004925000164166700000850
201223CORD7005088IACONTRERAS ROSARIO DELIA            00002262990075433000000850
201223CORE471125B22CHONTAL RIVEROLL ERASMO            00001036040034534700000850
201223CORI730821GF6CORTES RODRIGUEZ MARIA ISABEL      00001726140057538000000850
201223CORJ3902166G0CORDOBA RUIZ JOEL                  00003424050114135000000850
201223COYM6807308R4CORONEL YANEZ MARTHA ELENA         00002824470094149000000850
201223COZJ701110ECACONTRERAS ZUNIGA JUANA ELIZABETH   00000719390023979700000850
201223CUBS701116Q24CRUZ BONILLA SAUL                  00001914460063815300000850
201223CUCG680720F77CRUZ CRUZ GERONIMO                 00001393450046448300000850
201223CUCI700217IZ4CUMPLIDO CONTRERAS IRMA JOSEFINA   00002198330073277700000850
201223CUHG6603255C3CRUZ HERRERA GABRIEL               00003347480111582700000850
201223CUHU760304PN4CRUZ  HUMBERTO EDGAR               00001163520038784000000850
201223CUIJ690826HC0CUEVAS IBARRA JOEL                 00000960510032017000000850
201223CUIN720102872CRUZ IBARRA NANCY                  00001304940043498000000850
201223CUMA670123JB2CRUZ MENDEZ ALFONSO                00000982550032751700000850
201223CUML6405059J7CRUZ MENDOZA LAURA PATRICIA        00000987770032925700000850
201223CUMO6301031N1CRUZ MARTINEZ OSCAR                00005247140174904700000850
201223CUMP590805BE0CRUZ MARTINEZ PEDRO                00000304840060968000000850
201223CUOY760406SA0CUEVAS ORTIZ YRACEMA               00001996710066557000000850
201223CURS630127BC4CRUZ ROSALES SAMUEL                00001397330046577700000850
201223CURV641108U14CRUZ RUIZ VICTORINO                00001455800048526700000850
201223CUSM7109038P7CRUZ SANCHEZ MIGUEL ANGEL          00003075020102500700000850
201223CUTD7206054A0CRUZ TORRES DIANA NINA             00002928580097619300000850
201223DADG6103316E0DAMIAN DOMINGUEZ GLORIA            00002875570095852300000850
201223DAHS700917BI5DANTES HERNANDEZ SONIA ELIZABETH   00001345720044857300000850
201223DEHL5910196I4DELGADO HERNANDEZ LAURA ELENA      00000908770030292300000850
201223DICE630303B80DIONET CHAVEZ EDITH                00000726020024200700000850
201223DIGM6910086H3DIONISIO GUILLEN MARTHA ALICIA     00002873380095779300000850
201223DIVL5411201D2DIAZ VILLA JOSE LUIS               00001370170045672300000850
201223DOCI641102FV4DOMINGUEZ CUACUA MARIA ISABEL      00001185540039518000000850
201223DOCJ740908GM3DORANTES CARRION JEYSER            00003256100108536700000850
201223DOGH650226BZ7DOMINGUEZ GONZALEZ HECTOR          00003822880127429300000850
201223DOLA690927196DOMINGUEZ LEON ARACELY             00001920820064027300000850
201223DOMV610209IE9DOMINGUEZ MENDEZ VICTOR MANUEL     00000838150027938300000850
201223DOPB7106031Z8DOMINGUEZ PEREZ BERTHA OLIVIA      00001163520038784000000850
201223DORM780227GI7DOMINGUEZ RUIZ MIGUEL ANGEL        00001000250033341700000850
201223EAVL641009GE9ESCALANTE VALDEZ LEONARDO          00002935970097865700000850
201223EEBA7301133W3ESPEJO BARRADAS JOSE ANTONIO       00001769590058986300000850
201223EERN750706ECAELENA ROJAS NORMA ISELA            00001055930035197700000850
201223EICR720118HM7ESPINO CHIRINOS ROSA ELBA          00001736890057896300000850
201223EIGC710817311ESPINOZA GONZALEZ CARLOS           00000298390059678000000850
201223EILM7209089F7ESPINOSA LARA MONTSERRAT           00001462350048745000000850
201223EIOE581017G61ELIZALDE ORTIZ ELVA MARGARITA      00001565450052181700000850
201223EIRC640311HN9ESPINOZA REAL CECILIA              00001278230042607700000850
201223EIRG610207BW0ELIAS RODRIGUEZ MARIA GUADALUPE    00001832540061084700000850
201223EISC741126CS5ESPINOZA SOTO CLAUDIO ARTURO       00003862510128750300000850
201223EIVE581107NK6ENRIQUEZ VASQUEZ ESTELA            00001507400050246700000850
201223EOMP710127168ESCORCIA MARTINEZ PAULA            00002508960083632000000850
201223FABC771218227FAJARDO BERNABE MARIA DEL CARMEN   00000767470025582300000850
201223FAHS8106166J8FRANCO HERNANDEZ SALVADOR          00001969470065649000000850
201223FAPT720605H37FAJARDO PASTRANA TERESA DE LOS MILA00000936930031231000000850
201223FEAP6101243S8FERNANDEZ ARTEAGA MARIA DE LA PAZ P00004641320154710700000850
201223FECM720916LR5FERRAL CRUZ MARISSA                00003620180120672700000850
201223FEGC571104771FERNANDEZ GOMEZ CARLOS             00001145870038195700000850
201223FEGE550818HL4FERNANDEZ GOMEZ MARIA ELENA        00003122210104073700000850
201223FELE691204686FERNANDEZ LUNA ELIZABETH           00001203230040107700000850
201223FELJ741205642FERNANDEZ LAGUNES JOEL ANGEL       00000484300016143300000850
201223FEME791213A27FERNANDEZ MOGOLLON ENRIQUE         00001303140043438000000850
201223FEPB7702179W7FENTANES PRIETO BEATRIZ            00000688920022964000000850
201223FEPC681127LD7FENTANES PRIETO CATALINA           00001817060060568700000850
201223FOBL631029K65FLORES BATISTA JOSE LUIS           00001066930035564300000850
201223FOCA6105143D5FLORES CARRASCO MARIA DE LOS ANGELE00001025500034183300000850
201223FOGE760507U13FLORES GARCIA ELIZABETH            00001149070038302300000850
201223FOGJ670506FP0FLORES GALINDO JUDITH              00000780700026023300000850
201223FOLF560312LL6FLORES LOBATO FRANCISCO            00000936930031231000000850
201223FOMF680623GL2FLORES MARTINEZ FLORA ROSALIA      00001658020055267300000850
201223FOPC621123ES5FLORES PACHECO CLEMENCIA           00001289230042974300000850
201223FORT680423NG7FLORES RIVERA TERESA DE JESUS      00002491850083061700000850
201223FORV511025SJ4FLORES RODRIGUEZ VIRGILIO          00001100090036669700000850
201223FOTL551019BE3FLORES TRONCO LAURA                00001858150061938300000850
201223FOVI6709113F4FLORES VARGAS INAID                00001595810053193700000850
201223FUGJ560128RM8FUENTES GARCIA JORGE ANGEL         00003147890104929700000850
201223FUMA630620FB0FUENTES MORELOS ARTURO             00000488100097620000000850
201223FUPE590613PD9FUENTES PATRACA EMMA               00001061610035387000000850
201223FUSD621113LB9FUENTES SORIANO DIEGO              00001455550048518300000850
201223GAAN730218SV2GARCIA ARTEAGA NOEMI               00001535850051195000000850
201223GAAV661112SS3GARCIA AGUIRRE VICTOR MANUEL       00001582390052746300000850
201223GABP680323L21GARCES BARBOSA PATRICIA AURORA     00001079370035979000000850
201223GACC6711141Z4GARCIA CONSTANTINO CARMEN          00001227210040907000000850
201223GACI720627RB3GARCIA CUEVAS ILIANA DEL SOCORRO   00001250240041674700000850
201223GACN731205H61GALVAN CARRILLO NURY LAURA         00001076220035874000000850
201223GACO690114LGAGARCIA CRUZ ODORICO                00001710170057005700000850
201223GACV6402058E7GALAN CRUZ VALENTINA               00000785370026179000000850
201223GADG721206KT7GALMICHI DOMINGUEZ GRACIELA        00001535850051195000000850
201223GAFL620514RN3GAMEZ FERNANDEZ LETICIA            00001005650033521700000850
201223GAGE780323475GAYTAN GAYTAN EDITH                00001284410042813700000850
201223GAGJ601225SA9GARCIA GOMEZ MARIA DE JESUS        00001559120051970700000850
201223GAGM680615L88GARCIA GIL MARLENE                 00001914460063815300000850
201223GAGV610514E19GAMEZ GONZALEZ MARIA VICTORIA      00001455550048518300000000
201223GAGV740928GF7GARFIAS GALICIA VICTOR GABRIEL     00001827700060923300000850
201223GAHC710226LN8GARCIA HERNANDEZ CLAUDIA ALEJANDRA 00001746660058222000000850
201223GAHE601111LB9GALICIA HERNANDEZ ERNESTINA        00001605660053522000000850
201223GAHM670402P45GASCA Y HERRERA MONICA DEL CARMEN  00001605660053522000000850
201223GAHO630803V10GARCIA HERRERA OLGA LIDIA          00000919290030643000000850
201223GAHR710524NH9GARCIA HERNANDEZ MARIA DEL ROSARIO 00000972580032419300000850
201223GAJA751104Q16GALEANA JIMENEZ ANA KANI           00002146130071537700000850
201223GAJU531212R7AGALLARDO  JUAN CARLOS              00002256100075203300000850
201223GALA680507T17GARCIA LAVALLE ALBERTO             00003085560102852000000850
201223GALC730403UN5GRAJALES LAGUNES MARIA CONCEPCION  00001188020039600700000850
201223GALG691211KM2GRAJALES LAGUNES GUADALUPE         00001698160056605300000850
201223GALI621119A76GRANADOS LOPEZ MARIA ISABEL        00002741780091392700000850
201223GALJ6412074Q9GAMBOA LARA JULIO RUBEN            00002907330096911000000850
201223GALJ710215DA8GARCIA LAVALLE JOSEFA              00003122000104066700000850
201223GALS640605AH1GARZA LOPEZ SONIA CECILIA          00004395950146531700000850
201223GAMA710312PI5GALICIA MONTES ANGELA              00002270650075688300000850
201223GAMA710521UW2GALVEZ MEDINA ANILU                00001582390052746300000850
201223GAMG6602106A4GALINDO MARTINEZ GUILLERMO         00001773120059104000000850
201223GAMP710915K72GARCIA MEJIA PORFIRIA              00001112170037072300000850
201223GAMR7307293L2GARCIA MELGAREJO ROMAN AHUI        00001150150038338300000850
201223GAPJ730319Q11GARDUZA PEREZ JOSE JUAN            00002310290077009700000850
201223GARA530224D68GARCIA REYES ALBERTO               00000771590025719700000850
201223GARL6909205C3GARCIA ROSILES LAURA               00001826690060889700000850
201223GASA580203E96GRACIA SINTA ARTURO                00002650070088335700000850
201223GASE6801236X4GALINDO SILVETTI EVA               00002999980099999300000850
201223GASV740728SY6DE LA GARZA SANCHEZ VICTOR MANUEL  00001163520038784000000850
201223GAVO410510IS1GARZA VALDES OLIVIA                00000923150030771700000850
201223GAZR570429IX1GRAJALES ZURITA ROSA MARIA         00001264400042146700000850
201223GEML650919BL8GREEN MUNOZ LETICIA                00001914460063815300000850
201223GEUM690922MN7GERONIMO URBINA MAURICIO           00002232860074428700000850
201223GICJ651006EP3GILBON CALDERON JAVIER             00004282610142753700000850
201223GIRH721002CZ7GIL REYES HILDA LILI               00003143150104771700000850
201223GOAA6307268D2GONZALEZ ASCENCIO ANA LUISA        00001004740033491300000850
201223GOAA760926M4AGOMEZ ARGUELLES ARELI              00002645140088171300000850
201223GOAC730928F7AGOMEZ AMOR CLAUDIA VERONICA        00001164440038814700000850
201223GOAT7204088W1GOMEZ ANDRES TERESA                00001434400047813300000850
201223GOCI671022F95GONZALEZ CAMPOMANES IRMA           00001489310049643700000850
201223GOCN690220HN7GONZALEZ CHINO NORMA PATRICIA      00001304880043496000000850
201223GODO620928G23GONZALEZ DOMINGUEZ OLGA ELIZABETH  00001439670047989000000850
201223GOEL670702D74GOMEZ ESTRADA LORENA               00001466030048867700000850
201223GOER400119B25GOMEZ ESPINOZA MARIA RAQUEL        00000882890029429700000850
201223GOER671230E56GOMEZ ESCALANTE RAFAEL MARTIN      00001996710066557000000850
201223GOEY800801FU0GONZALEZ ENRIQUEZ YOHAANA          00001041270034709000000850
201223GOFR601023EJ6GONZALEZ  FRANCISCA                00002938160097938700000850
201223GOGG6602242L2GONZALEZ GARCIA GABRIEL            00002245700074856700000850
201223GOGR621023QK4GONZALEZ GARCIA MARIA DEL ROSARIO  00000879320029310700000850
201223GOHR510610KD0GONZALEZ HERNANDEZ ROBERTO         00000886560029552000000850
201223GOLC650808KFAGOMEZ LARA JOSE DEL CARMEN         00001970770065692300000850
201223GOLG710814642GOMEZ LARA GERARDO                 00000895600029853300000850
201223GOPI700516S80GOMEZ PONCE DE LEON ISELA          00003096910103230300000850
201223GOPJ770829UW8GONZALEZ PARADA JOVITA             00001097060036568700000850
201223GORG830923538GOMEZ RODRIGUEZ GUSTAVO            00000884730029491000000850
201223GOSL7405054C3GONZALEZ SANTILLAN LILIA           00000452580015086000000850
201223GOSL7810189D4GOMEZ SALAS LAURA YANET            00004282610142753700000850
201223GOVG641214KB4GODOS VEGA GUILLERMO               00001582390052746300000850
201223GUAM8106124T0GUZMAN ARRIAGA MAYA LUZ            00001407690046923000000850
201223GUBV761007V96GUILLEN BARRADAS VIANNEY           00001482010049400300000850
201223GUCG780404AH8GUERRERO CRUZ MARIA GUADALUPE YAZMI00001270300042343300000850
201223GUCP660412T84GUERRERO CANO MARIA DEL PILAR      00005663750188791700000850
201223GUFE7001283PAGUTIERREZ FERNANDEZ EVANGELINA     00001710170057005700000850
201223GUGA540913253GUTIERREZ GONZALEZ AMADO           00001803460060115300000850
201223GUHF690616RW7GUTIERREZ HERRERA FLORA DIANA      00001870500062350000000850
201223GUHI570204JM0GUISA HERNANDEZ MARIA ISABEL       00003256100108536700000850
201223GUSG631106TR0GUTIERREZ SAMPAYO GABRIEL          00000790650026355000000850
201223GUSR720519DY3GUTIERREZ SOBREVILLA ROSALBA       00002262990075433000000850
201223GUVE731107IW0GUZMAN VELASQUEZ ESTEFANIA         00001582390052746300000850
201223GUVR651110GV5GUTIERREZ VEGA RUFINA              00001095320036510700000850
201223HEAA650319CI1HERNANDEZ ALONSO JOSE ALBINO       00001634740054491300000850
201223HEAD570922MW1HERNANDEZ AGUILERA DOMINGA         00003164260105475300000850
201223HEAD600822JP0HERNANDEZ ARRES DORA MARIA         00001817060060568700000850
201223HEAE730108LU2HERNANDEZ AGUILERA ESMERALDA       00001095320036510700000850
201223HEAJ56081712AHERNANDEZ DEL ANGEL JACINTO        00001132460037748700000850
201223HEAL650905QP2HERNANDEZ ALONSO LORENZO           00000799150026638300000850
201223HEBJ661023HJ4HERRERA BARREDA MARIA DE JESUS     00002777690092589700000850
201223HEBM6709081Q7HERMOSO BANDALA MANUEL             00000526840105368000000850
201223HEBR720912MS7HERNANDEZ BERNAL RUTH ESTELA       00001149070038302300000850
201223HECA660821KY9HERNANDEZ CRUZ MARIA DE LOS ANGELES00001195080039836000000850
201223HECG530401S71HERNANDEZ CRUZ MARIA GREGORIA      00001033360034445300000850
201223HECI701106LU9HERNANDEZ CRUZ IRMA JANET          00000778060025935300000850
201223HECM610104728HERNANDEZ CAMPOS MARIO ALBERTO     00000614920020497300000850
201223HECV660129PR4HERNANDEZ CEBALLOS VIRGINIA        00001710170057005700000850
201223HEDA640527154HERRERA DIAZ MARIA DE LOS ANGELES  00003594850119828300000850
201223HEFM660724JW0HERNANDEZ FLORES JOSE MANUEL       00001582390052746300000850
201223HEHE720227I89HERNANDEZ HERNANDEZ ELIZABETH      00002143910071463700000850
201223HEJD610725SU1HERNANDEZ JIMENEZ DORA ALICIA      00004359700145323300000850
201223HELC760203PU8HERNANDEZ LOPEZ CINTHYA            00001078460035948700000850
201223HELE7207199J3HERNANDEZ LANDA EDITH              00001790330059677700000850
201223HELI651208CT4HERNANDEZ LOZANO IRENE             00001582390052746300000850
201223HELO590402SK9HERNANDEZ LOZADA OFELIA            00000838050027935000000850
201223HELR770307KE2HERRERA LOPEZ ROSALINDA            00001270300042343300000850
201223HELT670629PA0HERNANDEZ LECHUGA MARIA TERESA     00003796850126561700000850
201223HEMA680510CC2HERNANDEZ MONROY ANTONINO          00002427190080906300000850
201223HEMF680811TH9HERNANDEZ MORALES FAUSTO ENRIQUE   00001220310040677000000850
201223HEOB681206G58HERNANDEZ OCHOA BALBINA            00001264400042146700000000
201223HEPV570702M5AHERNANDEZ PASTRANA VICTOR OCTAVIO  00000757120025237300000850
201223HERE810214TG6HERNANDEZ RONZON EMANUEL           00001401510046717000000850
201223HERI781004LQ0HERNANDEZ RIANO ILIANA             00001043980034799300000850
201223HERO650715MU7HERNANDEZ RUIZ OZIEL               00001025440034181300000850
201223HERR630915980HERNANDEZ ROSARIO REYNA DEL CARMEN 00000709250023641700000850
201223HESA711020EX6HERNANDEZ SALAZAR ADRIANA BEATRIZ  00000990900033030000000850
201223HESM7309154Q6HERNANDEZ SANCHEZ MAYRA            00002467630082254300000850
201223HESS411029536HERNANDEZ SANCHEZ SIMON            00000869720028990700000850
201223HESS6111291T6HERNANDEZ SANCHEZ SATURNINO        00002755080091836000000850
201223HETF6506277R8HERNANDEZ TAXILAGA FERNANDO FRANCIS00001634180054472700000850
201223HEVD731229KL8HERNANDEZ VAZQUEZ DAVID            00001011060033702000000850
201223HEVI7511171Q6HERRERA VASQUEZ MARIA ISABEL       00001512580050419300000850
201223HEVJ690522T39HERNANDEZ VAZQUEZ JORGE            00000433800014460000000850
201223HEVJ7310271K5HERNANDEZ VAZQUEZ JOSE JUVENCIO    00000740930024697700000850
201223HEVS710708IK6HERNANDEZ VEGA SILVIA              00001078460035948700000850
201223HEZG800301AF1HERNANDEZ ZUNIGA MARIA GABRIELA    00001419500047316700000000
201223HEZK741018UY0HERNANDEZ ZUMAYA KARLA ERIKA       00001507230050241000000850
201223HURE530816QVAHUERTA RIVERA ERNESTINA            00002346520078217300000850
201223IASA750310V9AISLAS SANTIAGO ALMA VERONICA       00003001620100054000000850
201223JACO791218NN1JARDINES COBOS ORLANDO             00000613980020466000000850
201223JADG620507781JARA DIAZ GISELA                   00002224970074165700000850
201223JADR6101067G0JARA DIAZ REINA                    00002149940071664700000850
201223JAOR731017DW1JACOME OLMOS RUTH MARGARITA        00001582390052746300000850
201223JASA630712J46JARDINES SEGURA ARMANDO            00002510320083677300000000
201223JEPJ6101199A9DE JESUS PAUL JOSEFA               00001386500046216700000850
201223JEPM740121IT5JEREZ PAVON MONICA EVA             00001412990047099700000850
201223JEPS660915JDADE JESUS PAUL SILVIA               00003096950103231700000850
201223JIDR710608DS0JIMENEZ DOMINGUEZ ROSARIO          00001167840038928000000850
201223JINV4205157IAJIMENEZ NUNEZ VICENTE JUSTINO      00004282610142753700000850
201223JIOE7804232G0JIMENEZ ORDAZ MARIA ELENA          00000826700027556700000850
201223JIRD810801IIAJIMENEZ RIOS DAISY                 00001396220046540700000850
201223JIRM780225KQ2JIMENEZ RIOS MARTHA                00001008590033619700000850
201223JIVS660627170JIMENEZ VASQUEZ MARIA DEL SOCORRO  00002252840075094700000850
201223JUMA650117CW3JUAREZ MENDEZ MARIA ANTONIA        00001559120051970700000850
201223JUME741028DI1JUAREZ MORALES ERIKA               00001512580050419300000000
201223JUMG710410BCAJUAREZ MARTINEZ MARIA GLORIA LETICI00001078460035948700000850
201223JUMJ601116JS3JUAREZ MARTINEZ JUANA              00002607950086931700000000
201223JURA620927I19JUAREZ RIVERA ADELAIDA             00003361190112039700000850
201223JUSL730822DZ7JUAREZ SANCHEZ LILIANA             00001095320036510700000850
201223LAAN630829DIALANDA  ANDRES                      00001061680035389300000850
201223LAAT621001EW9LAGUNES ALARCON TERESITA VICTORIA  00001079370035979000000850
201223LABJ6804122N2LARA BARCELATA JULIO CESAR         00001397330046577700000850
201223LABM590619MFALANDA BARRERA MANUEL               00004270500142350000000850
201223LABY781008FQ4LAGUNES BARRADAS YADIRA            00001270300042343300000850
201223LACN771026FI5LANDA CASTANEDA NADYA ELENA        00001327340044244700000850
201223LAHA770121KE6LARA HERRERA ADRIAN ASAID          00000960510032017000000850
201223LAHL700621F41LARA HERNANDEZ LUISA ESTHER        00001345720044857300000850
201223LARA730521D67LANDAVERDE ROJANO ANDREA           00001840460061348700000850
201223LARL6406287D0LAGUNES RODRIGUEZ MARIA LAURA      00000441990088398000000850
201223LASM590402A19LARA SAGAON MIRNA OFELIA           00001279870042662300000850
201223LAYR541030FQ9LAGUNES YEPEZ MARIA DEL ROSARIO    00001260740042024700000850
201223LAZA8110051V4LANDA ZARATE ANGEL LUIS            00001451720048390700000850
201223LAZF661024SX3LARA ZUMAYA FABIOLA                00001582390052746300000850
201223LECM720123PK5LEIJA CASTILLO MARTHA OFELIA       00001858150061938300000850
201223LEHN680908AE2LEON HERMIDA MARIA NATIVIDAD       00001559120051970700000850
201223LEMF700708BE3LENDECHY MENDOZA FRANCISCA         00001605660053522000000850
201223LEOV660514E60LEON ORDONEZ VICTOR ROGELIO        00003092800103093300000850
201223LETI670221D31LEON TEJEDA IRENE                  00002339460077982000000850
201223LIAE6803238M3LICEA ANDRADE ESTELA               00001325330044177700000850
201223LIAR580917SE9LINARES ABAD ROSELIA               00003073190102439700000850
201223LIVJ650812169LICONA VAZQUEZ JAVIER              00001693730056457700000000
201223LOAC620718CP5LOPEZ DEL ANGEL MARIA DEL CARMEN   00001628930054297700000850
201223LOBF610821477LOPEZ BALCAZAR FIDELA              00002430150081005000000850
201223LOCJ640412HC7LOPEZ CALVARIO JULIO               00003312090110403000000850
201223LOCM681126GZ0LOPEZ CORDOVA MARTHA ALICIA        00000843120028104000000850
201223LOCP650915KP4LOYDA CRUZ PATRICIA                00001396220046540700000850
201223LODS641212GN3LOPEZ DIAZ SILVIA GUADALUPE        00001264400042146700000850
201223LOGC401104958LOPEZ GARCIA CARLOS                00005663750188791700000850
201223LOGE6912123N9LOPEZ GUERRERO ESTHER GUADALUPE    00004064850135495000000850
201223LOGG640319FA3LOPEZ GARCIA GLORIA                00002534770084492300000850
201223LOGS7308223W9LOPEZ GONZALEZ SONIA               00000884730029491000000850
201223LOHC670821489LOPEZ HERNANDEZ CATALINA           00001513770050459000000850
201223LOLA741109G63LOPEZ LARA ALMA PATRICIA           00000828560027618700000850
201223LOMG640324MN4LOZANO MORALES GABRIEL             00001752820058427300000850
201223LOMG6410119C5LOPEZ MORENO GENOVEVA              00001752450058415000000850
201223LOMG701212DB2LOPEZ MARTINEZ MARIA GUADALUPE     00002488130082937700000850
201223LOMJ6702159L0LOPEZ MORENO JOAQUIN ALBERTO       00001324830044161000000850
201223LOPM750119ER4LOPEZ PAVON MARISSA                00002938160097938700000850
201223LORO720829R76LOPEZ RIVAS OSCAR FRANCISCO        00001462350048745000000850
201223LOSA871024I89LOPEZ SEBA AMERICA                 00000724760024158700000850
201223LOSM660916DL8LOPEZ SALOMON MARIO                00000854260028475300000850
201223LOTC6911134P9LOYO TRUJILLO CAROLINA             00001132460037748700000850
201223LOTR700724RQ0LOPEZ TRUJILLO MARIA ROSALBA       00001203230040107700000850
201223LOVE790804FN9LOPEZ VALENCIA EMILIO MANUEL       00001752820058427300000850
201223LOVG620919RB8LOPEZ VALDIVIA GENARO              00005983430199447700000850
201223LULN7301171K1LUNA LEAL NORMA                    00002337100077903300000850
201223LUPA620112RX4LUNA PAREDES ALFREDO               00001466030048867700000850
201223LUZA621207260LUNA ZALETA MARIA DE LOS ANGELES   00001803460060115300000850
201223MAAE680708I35MARIN ARROYO ELIZABETH ARACELI     00001861630062054300000850
201223MAAG631117PT8MARTINEZ ALONSO GILMA OLINDA       00001917550063918300000850
201223MAAJ741009KN7MARTINEZ AVILA JUAN RODOLFO        00001136460037882000000850
201223MABI6608235P0MARCOS BENITO IRMA                 00002650070088335700000850
201223MACA620506L43MARTINEZ CRUZ ARNULFO              00002337100077903300000850
201223MACA7209273N5MATA CONTRERAS ARACELI             00001997560066585300000850
201223MACG690425QA0MARTINEZ CUERVO GUADALUPE          00001807390060246300000850
201223MAEH711231LF3MATEO ESCOBAR HECTOR LUIS          00001205770040192300000850
201223MAFI670114RS4MARQUEZ FERNANDEZ ISAURA           00003411980113732700000850
201223MAFS5908105N8MARTINEZ FLORES SUSANO             00002119360070645300000850
201223MAGE700526AI9MARIN GALAN ESTEBAN                00002817680093922700000850
201223MAGE751128NZ2MARTINEZ GONZALEZ ESTEBAN          00001305940043531300000850
201223MAGL800813413MARTINEZ GUZMAN LUIS ENRIQUE       00001372950045765000000850
201223MAGR710607B55MARTINEZ GARCIA RAUL ODON          00000722460024082000000850
201223MAGS650709370MARTINEZ GOMEZ SONIA               00001832540061084700000850
201223MAGY721001KK0MARTINEZ GUZMAN YESIKA DEL ROSARIO 00002086120069537300000850
201223MAHE291224G59MARTINEZ HERNANDEZ EUTIMIO         00001133620037787300000850
201223MAJT620828RU0MACIAS JIMENEZ MARIA TERESA        00003620180120672700000850
201223MAMA650721P54MARQUEZ MEDINA MARIA ANGELINA      00001371330045711000000850
201223MAMG720524AV8MATLA MONTERD GERARDO              00000405160013505300000850
201223MAMG741016L93MALDONADO MENDOZA GUILLERMO        00001971920065730700000850
201223MAMM720112M29MARTINEZ MASCORRO MA JOSEFA DEL ROS00001238620041287300000850
201223MANP680717CW7MARTINEZ NEPOMUCENO PATRICIA       00002516450083881700000850
201223MAOL680121UF3MARTINEZ OLIVA LUIS RUBEN          00001736890057896300000850
201223MAOV670214I52MARTINEZ ORTEGA VICTOR             00001786340059544700000850
201223MAPA700628NJ5MARCOS PIOQUINTO ALBERTO           00001345720044857300000850
201223MAPA701122LR7MALDONADO PRIOR ARACELI            00001371330045711000000850
201223MAPC690314G5AMAR PONCE MARIA DEL CARMEN         00001112170037072300000850
201223MAPJ730423EBAMANTILLA POLANCO JORGE ALFREDO     00001203230040107700000850
201223MAPM7407223SAMARTINEZ PEREZ MARIA MAGDALENA     00001112170037072300000850
201223MARC690503HP6MAZA RIVERA MARIA DE LA CRUZ       00001763610058787000000850
201223MARG530112L41MARURE RODRIGUEZ GABINA            00001419500047316700000850
201223MARL550222P21MATHEY RODRIGUEZ LUZ EDELMIRA      00000881820029394000000850
201223MARR630905PR7MARURE RODRIGUEZ MARIA DEL ROSARIO 00004632740154424700000850
201223MARR651104P20MAYO RIVERA MARIA DEL ROCIO        00001434400047813300000850
201223MASA680505IGAMATEOS SANCHEZ MARIA DE LOS ANGELES00003842460128082000000850
201223MASR770830FM0MARTINEZ SEGURA MARIA DEL ROCIO    00002036060067868700000850
201223MAVA680202GM1MARTINEZ VILLARES ALEJANDRA        00001717550057251700000850
201223MAVA730226A61MARTINEZ VILLARES ANDREA           00000797170026572300000850
201223MECD720521J14MENENDEZ CRUZ DANIEL               00000799150026638300000850
201223MECL670210Q32MELGAREJO CASTRO MARIA DE LOURDES  00000972580032419300000850
201223MECM620221345MENDOZA CARMONA JOSE MANUEL        00001132460037748700000850
201223MECO7502279PAMERCADO COLUNGA OYUKI MARTHA ELENA 00001011060033702000000850
201223MECT521029982MEDINA CABRERA TEODORA             00001817060060568700000850
201223MEGM630226NW2MERAZ GOMEZ JOSE MANUEL            00000652180021739300000850
201223MEGR6704083K8MENDOZA GERONIMO ROSA MARIA        00000882890029429700000850
201223MELA660828FCAMENDEZ LOYA AGUSTINA               00001238620041287300000850
201223MEMC810711KU9MEDEL MARIANI CRISTIAN ALEJANDRO   00001996710066557000000850
201223MEML790714QW3MENDOZA MUNOZ LAURA PATRICIA       00001665500055516700000850
201223MEMR761116GQ1MEDINA MALPICA ROSA ISELA          00004395950146531700000850
201223MEOM740727ACAMELCHOR OLIVEROS MANUEL            00002988860099628700000850
201223MEPA6912107CAMENDEZ PARRA ARACELI               00002101350070045000000850
201223MEPL600621RQ7MERAZ PONCE LUIS                   00001419500047316700000850
201223MERA8601174G2MELCHOR RONZON MARIA ANGELICA      00000688920022964000000850
201223MERH690114LA9MELENDEZ REYES HAYDEE              00001241180041372700000850
201223MERR730520GH3MENDOZA ROSENDO RODOLFO            00002835610094520300000850
201223MESA5906097F9MENDOZA SILVA ARACELI              00001535850051195000000850
201223MESV600111HF0MENDOZA SILVA VENONI               00002794580093152700000850
201223METE6305177Q4MEZA TEJEDA ERIK MANUEL            00000881820029394000000850
201223MIRI7101218Y2MIRANDA REYES INES                 00002561200085373300000850
201223MIVJ550510M88MIRANDA VIRGEN JORGE EDUARDO       00001396220046540700000850
201223MOAA660210NT1MORA ARROYO ALMA LIDIA             00001336070044535700000850
201223MOAJ7602177TAMONTERO AMEN JUAN RAUL             00003841040128034700000850
201223MOBD5912222E9MORALES BONILLA DEMETRIO           00001167840038928000000850
201223MOCA661111MW4MOTA CHIQUITO JOSE ANTONIO         00003066990102233000000850
201223MOCF520526VC9MORA CARVAJAL FELIPE               00002662460088748700000850
201223MOCG6912158L8MONTORES CUELLAR GUADALUPE         00001886300062876700000850
201223MOCL700305722MORALES CRUZ MARIA LUISA           00001250240041674700000850
201223MOCM7903122M1MORALES CANSECO MISAEL             00000532550017751700000850
201223MOCR630712UC6MORTERA CARBONELL MARIA DEL ROSARIO00001396220046540700000850
201223MOCV650925IV8MORALES CRUZ VIRGILIO              00001133620037787300000850
201223MODS730616RV1MORAN DOMINGUEZ SUSANA             00001132460037748700000850
201223MOHA660915P95MONFIL HERNANDEZ ANGEL             00002358840078628000000850
201223MOHR591218LGAMORENO HUERTA RUPERTA              00001803460060115300000850
201223MOHS610528C18MORALES HERNANDEZ SUSANA TRINIDAD  00002177230072574300000850
201223MOIA6810091R7MORALES ILLESCAS JOSE ALFREDO      00000715080023836000000850
201223MOLE620902B19MORALES LOPEZ ESTEBAN              00001466030048867700000850
201223MOLF710116IH5MOTA LOPEZ FRANCISCO JAVIER        00001490840049694700000850
201223MOLR7103071I1MOLINA LOZANO ROSIBELL             00001163520038784000000850
201223MOLS640513H90MORENO LOPEZ MARIA DEL SOCORRO     00000803830026794300000850
201223MOMA720621A53MOGUEL MARTINEZ ALFONSO            00001406880046896000000850
201223MOMA790503EVAMONTIEL MALDONADO ANWAR            00000968600032286700000850
201223MOMC720902558MOTA MELGAREJO CARLOS              00000724760024158700000850
201223MOMJ7012195X8MONTANO MERCADO JORGE LUIS         00001790330059677700000850
201223MOMR5207124L9MORALES MAGANA REYNALDA            00000426380014212700000850
201223MONG711214567MONJARAS NIZIMURA GUADALUPE        00001348760044958700000850
201223MOOE681010C42MONTERO ORTIZ MARIA ESTHER         00001396220046540700000850
201223MOOL640206227MORALES OVANDO LUIS ENRIQUE        00002938160097938700000850
201223MOOM700117NX0MORGADO OLVERA MARGOT              00000892830029761000000850
201223MOPJ631229UU4MONTALVO PENA JUDITH               00001327020044234000000850
201223MOPJ650127VB2MORALES PIMENTEL JUAN ROBERTO      00001420260047342000000850
201223MOPM700330531MONTOYA PEREZ MARTHA ANGELICA      00002821900094063300000850
201223MORC710817BC9MORA RONQUILLO MARIA DEL CARMEN    00001011060033702000000850
201223MORM460903MI9MONTIEL RINCON MATILDE             00001213460040448700000850
201223MORM591106PI4MONTERO REBOLLEDO MOISES LEONARDO  00001489310049643700000000
201223MORR381026QP2MORALES RODRIGUEZ RUBEN            00001336070044535700000850
201223MORR6809147E3MORALES RIVERA MARIA DEL ROCIO     00001061610035387000000850
201223MOSB690520UM2MORGADO SANDOVAL BERNARDO          00000942180031406000000850
201223MOSG6204235YAMORALES SANCHEZ GEORGINA           00001582390052746300000850
201223MOSP660411726MOLINA SAGARDIA PEDRO GASPAR       00002950290098343000000850
201223MOTF710513KU3MORALES TEJEDA FATIMA              00001203230040107700000850
201223MOVC560213L27MOYANO VELAZQUEZ CRISTINA GLORIA   00000838050027935000000850
201223MOZM760614CR1MORALES ZULETA MIGUEL ANGEL        00001807280060242700000850
201223MUBJ720624M95MUNOZ BAUTISTA JUAN                00001736890057896300000850
201223MUCA670330M1AMURRIETA CUEVAS ADELINA            00003232160107738700000850
201223MUPF770601AN2MUNOZ PORTILLA JOSE FABIAN         00000688920022964000000850
201223MURE690823CJAMUNOZ ROA ELIAZER                  00001829580060986000000850
201223NACA661119BS4NARANJO CORTES ADA ISABEL          00003112760103758700000850
201223NACM710520BT4NARANJO CORTES MONICA              00002201980073399300000850
201223NEGB580616LX9NERI GALINDO BEATRIZ IRENE         00001061610035387000000850
201223NICE740318HU6NINO CRUZ EDGAR CIANI              00000812930027097700000850
201223NIHJ690528SL2NICOLAS HERNANDEZ JORGE            00002199860073328700000850
201223NIMR720831URANICOLAS MARTINEZ RAMON             00000799150026638300000850
201223NIRF690222UU3NICOLAS RAMIREZ FLORENTINA         00000896600029886700000850
201223OAAJ751209ENAOVANDO AGUILAR JUAN DAVID          00000950980031699300000850
201223OEAR6212195UAORTEGA ALMANZA RAFAEL              00001204130040137700000850
201223OEBB730220496ORTEGA BARROSO BLANCA ESTELA       00001628930054297700000850
201223OEGA6901232D2OBREGON GANDARA AMAULI             00002300570076685700000850
201223OEGA7405118Q9OBREGON GANDARA ARACELI            00000983580032786000000850
201223OEHL630509BX9ORTEGA HERNANDEZ LAURA PATRICIA    00002559550085318300000850
201223OEPL660323JM0OBESKIN PEREZ LENIN                00002388850079628300000850
201223OIJJ600202S17ORTIZ JARILLO JORGE                00000173620005787300000000
201223OIJL6403187X9ORTIZ JOACHIN JOSE LUIS            00003533950117798300000850
201223OIMJ821005MR0ORTIZ MARTINEZ JULIO FELIPE        00005202990173433000000850
201223OIVY7811275Y1ORTIZ VILLALOBOS YENNY DEL CARMEN  00001162210038740300000850
201223OODD630405356OCHOA DIAZ DOLORES                 00001763610058787000000850
201223OORA520204310OSOGOBIO RODRIGUEZ ARELI           00001686250056208300000850
201223OOTB6810179Y0OSORIO TORRES BLANCA MARGARITA     00002117160070572000000850
201223OOVA620212QT7OSORIO VIVEROS ALEJANDRO           00001834870061162300000850
201223OUML700220IA1OLGUIN MERAZ LORENA                00002135120071170700000850
201223OUMM780721469OLGUIN MARTINEZ JOSE MAXIMO        00002618690087289700000850
201223PABA570818TZ7PATINO BOND ALBERTO                00001816140060538000000850
201223PACA550529TZAPALAZUELOS CABRERA ADOLFO          00001628930054297700000850
201223PAMM6502181NAPALESTINA MENDOZA MARICELA         00001658020055267300000850
201223PAPD681109IY1PALMA PEREZ DEBBIE ADRIANA         00001304940043498000000850
201223PAPG701019857PAXTIAN PEREZ GEMA                 00001942610064753700000850
201223PAVI670327FL0PARRA VALDIVIA IRMA ANGELICA       00003042820101427300000850
201223PECA790319GWAPEREZ CASTILLO ADRIANA             00004395950146531700000850
201223PECC670208B1APEREZ CABRERA CESAR ALBERTO        00001582390052746300000850
201223PECG7207081YAPEREZ CARRANZA GABRIEL HUMBERTO    00001582390052746300000850
201223PECJ691210QE2PEREZ CABRERA JULIA LAURA          00001817060060568700000850
201223PEEC7002132E7PEREZ ESTRADA CASIMIRO             00004135180137839300000850
201223PEFC730406B76PEREZ FRANCISCO CANDELARIA         00001498620049954000000850
201223PEJN711127UA8PEREZ JUAREZ NIMBE ANTONIETA       00001349680044989300000850
201223PEMG650204AFAPEREZ MADRIGAL GILBERTO            00002201980073399300000850
201223PEMZ740907770PERDOMO MENDEZ ZARAYN              00001466030048867700000850
201223PEPJ750713930PEREZ PEREZ JOEL                   00002661620088720700000850
201223PESA8001055J2PEREZ SOSA ARLETTE KARINA          00001103150036771700000850
201223PESR710705TC1PEREZ SILVA RAUL                   00001380260046008700000850
201223PIAJ640319N18PIEDRA AGUILAR JOSEFINA            00001114760037158700000850
201223PIFM611017TA4PRIMO FERNANDEZ MARGARITA          00001176690039223000000850
201223PIRJ651227H78PRIETO REYES JOSEFA                00000854260028475300000850
201223PIZG6905106A0PRIETO ZUNIGA GRACIELA             00001304940043498000000850
201223POHF690704TC3POSADAS HERNANDEZ FACUNDO          00001022680034089300000000
201223POPS6701122R3PORTILLA PORTELA SANDRA LUZ        00000291670009722300000850
201223POTS5812239C4PORTUGAL TORRES MARIA DEL SOCORRO  00002723480090782700000850
201223POZA800215KL8POLA ZANDATE ALVA YARERI           00001284530042817700000850
201223PUAJ780207S44PULIDO AZAMAR JENNIFFER            00000994210033140300000850
201223PURB650827IT8PUCHETA ROSAS BARTOLO              00001121540037384700000850
201223QUFA630124K83QUIROZ FLORES ALBERTO              00002848330094944300000850
201223QUMA601113BS3QUIROZ MORALES ALMA DELIA          00001582390052746300000850
201223QUOG540801LP6QUESADA OSORIO GERARDO ARTURO      00001582390052746300000850
201223RAAJ651223S57RAMIREZ ARIAS JOSEFINA             00003529220117640700000850
201223RABA6902082T5RAMIREZ BADILLO ALEJANDRO          00001129020037634000000850
201223RABJ520407PK8RAMIREZ BIBIANO JORGE              00001227210040907000000850
201223RACA790322160RAMIREZ CASTILLO ANA MARIA         00000838150027938300000850
201223RACH550111PQ5RAMOS CUETO HORTENCIA              00001283000042766700000850
201223RACM6501286J0RAMIREZ CESPEDES MIREYA MARGARITA  00001397330046577700000850
201223RACM681221CA2RAMIREZ CASTILLO MIRTHA            00001803460060115300000850
201223RAFB620321EI7RANGEL FLORES BENITO               00001576170052539000000850
201223RAHJ810217LFARAMIREZ HERNANDEZ JOSE JUAN        00000842550028085000000850
201223RAJL6705252U3RAMIREZ JIMENEZ MARIA DE LOURDES   00001203230040107700000850
201223RAMY820517C53RAMIREZ MARTINEZ YAZMIN            00001223380040779300000850
201223RAPR6609043Z6RAMOS PEREZ ROSA ISABEL            00001259710041990300000850
201223RARG7105073E4RAMIREZ REYNA GISELA               00003549460118315300000850
201223RASD690815FI8RAMIREZ SILVA DANIEL               00000490000016333300000000
201223RASJ700911UF1RAMIREZ SANTES JACINTO ALBERTO     00001710170057005700000850
201223RATJ750629BK3RAYO TORREBLANCA JUAN CARLOS       00001447250048241700000850
201223RAVA571130EY0RANGEL VITTI ANA JUDITH            00001810310060343700000850
201223RAVM7805207Q0RAMIREZ VAZQUEZ MARISELA           00001304940043498000000850
201223REAY720829T69REYES ARTEAGA YAZMIN ADRIANA       00001370170045672300000850
201223RECA620121PYAREBOLLEDO CANDELARIO JOSE ALBERTO  00001535850051195000000850
201223REEA711130EG9REYES ESPINOSA JOSE ANDRES         00001019480033982700000850
201223REIA580402N56REYES IZQUIERDO ADAUTO             00001067830035594300000850
201223REIT6001289Q8REYES IZQUIERDO TIRSO              00000803830026794300000850
201223REJM620221GE0REBOLLAR JIMENEZ MARGARITA         00004225280140842700000850
201223REMI620528PF6RENERO MENDIOLA ISMAEL             00000639850021328300000850
201223RERU651219544REYES RAMIREZ URBANO               00000943420188684000000850
201223RESA710111NA7REYES SANCHEZ ALEJANDRO            00001325330044177700000850
201223RIAC5512253B4RIVAS ALOR CARMEN EUGENIA          00001341330044711000000850
201223RIGA600828TG0RIVERA GONZALEZ AGUSTIN            00000909380030312700000850
201223RIGC7508289Q5RIVERA GARCIA CLAUDIA              00001582390052746300000850
201223RIMM6706036B3RIVERA MONTERO MATILDE             00001412990047099700000850
201223RIMM750713RN8RIOS MARTINEZ MELIDA               00001396220046540700000850
201223RIMM800114EU9RIOS MARTINEZ MARTINA              00001011220033707300000850
201223RIRB770912MK8RIZO REYES BERTHA LILIA            00001394860046495300000850
201223RIRN710806CH0RIVERA RIOS NOLBERTO               00001199720039990700000850
201223RISI600521124DEL RIO SILVA ISAIAS               00001386500046216700000850
201223RIVF590315CT4RIVADENEYRA VALLEJO MARIA FELIX    00001582390052746300000850
201223RIVJ6511033B4RIOS VIVEROS JAVIER                00001336070044535700000850
201223ROAG5812208K8ROSALES ALMEIDA GABRIEL            00001367330045577700000850
201223ROAG690608MA7ROBLES AMARO MARIA GRACIA          00000864510028817000000850
201223ROBM660731EA2ROSAS BARRIOS MIGUEL ANGEL         00001185540039518000000850
201223ROCA621023723ROMERO CRUZ ALEJANDRO              00001759580058652700000850
201223ROCC730502QRARODRIGUEZ CRUZ MARIA CRUZ          00001325330044177700000850
201223ROCG570121KL9RODRIGUEZ CORDOBA GLADIS           00001203230040107700000850
201223ROCT570126MI3ROBLES COBOS MARIA TERESA          00001722830057427700000850
201223ROFA710816FQ1RODRIGUEZ FRANCO ADRIAN            00002848330094944300000850
201223ROFJ7102083P4ROSARIO FERNANDEZ JUANA            00001223380040779300000850
201223ROGE690816NT8RODRIGUEZ GONZALEZ ESTEFANIA       00004163210138773700000850
201223ROGP6708087H8RODRIGUEZ GOMEZ PATRICIA           00000869720028990700000850
201223ROGR770502514RODRIGUEZ GARCIA RAUL              00002190630073021000000850
201223ROHY761022KQ1ROSSETTE HERNANDEZ YEMY            00001474440049148000000850
201223ROJF6702247X5RONZON JUAREZ FIDELIA              00001018170033939000000850
201223ROLF711025G92RODRIGUEZ LOPEZ FABIO              00002713450090448300000850
201223ROMC5807163P9ROJAS MENCIO MARIA DEL CARMEN      00001095320036510700000850
201223ROMC610617RN0ROSALES MARTINEZ CRUZ DEL CARMEN   00001182600039420000000850
201223ROMC620314RD9RODRIGUEZ MORALES CARLOS           00002722580090752700000850
201223ROMD700627V58RODRIGUEZ MARTINEZ DOMINGO         00001264160042138700000850
201223ROMF730925G52RODRIGUEZ MARTINEZ FELIPE DE JESUS 00002853170095105700000850
201223ROMH740127EW8RODRIGUEZ MARTINEZ HUGO            00001350740045024700000850
201223ROMR691025D76RODRIGUEZ MENDEZ ROSA ISELA        00002081480069382700000850
201223ROPG561210K78RODRIGUEZ PONCE MARIA GUADALUPE    00003171220105707300000850
201223ROPH701121DY1ROSETTE PEREZ JOSE HUGO            00000367500012250000000850
201223ROPN850530BY1ROUSTAND PAZOS NOE                 00001163520038784000000850
201223RORB590404DU2ROSAS REYES BENITO                 00000923150030771700000850
201223RORE580224P64RODRIGUEZ RAMIREZ MARIA ELENA      00001260740042024700000850
201223RORR800921L40RODRIGUEZ ROBLEDO RUBI DEL RECUERDO00001008590033619700000850
201223ROSJ6710203V2ROSALES SUAREZ JUAN CARLOS         00004925000164166700000850
201223ROSQ5812052XARONZON SOLIS QUIRINO               00002375950079198300000850
201223ROTE8111148E9RODRIGUEZ TAPIA ERIKA ALEJANDRA    00001496400049880000000850
201223ROVC650118HFAROMERO VILLARREAL CIRO             00001817060060568700000850
201223ROVD700222357ROMAN VEGA DOLORES                 00001163520038784000000850
201223ROVJ720304RZAROMAN VEGA JUANA LILIA             00001803460060115300000850
201223RUBE740723HA5RUIZ BELTRAN ERIKA                 00001710170057005700000850
201223RUCE6604281Z3RUIZ CALLEJAS ELVIA                00001799590059986300000850
201223RUDM7405021LARUCABADO DIAZ MARIBEL              00001149070038302300000850
201223RUMD621012K66RUEDA DE LEON MONTIEL MARIA DEYANIR00002123520070784000000850
201223RUPC660716QL3RUIZ PEREZ CARLOS ENRIQUE          00001167840038928000000850
201223RURR551226KD3RUIZ RIVERA RODOLFO                00004395950146531700000850
201223SAAJ680723FH9DE LOS SANTOS AMBROCIO JOSEFINA    00000950710031690300000850
201223SABE640919QX1SANCHEZ BAUTISTA MARIA ELENA       00002133680071122700000850
201223SABL800617S6ASARMIENTO BARRIOS LILIANA LOURDES  00001079370035979000000850
201223SABR7512047A1SANTIAGO BORROMEO RAMON            00002803510093450300000850
201223SACL760923MS5SAGAHON CANALES LAURA ROCIO        00001767010058900300000850
201223SACP671025GL7SANTIAGO CRUZ PETRA                00004282610142753700000850
201223SADC550328VC9SANCHEZ DIAZ MA CONCEPCION         00001171430039047700000850
201223SAGA691116CG3SANCHEZ GARCIA AUGUSTO             00001559120051970700000850
201223SAGI750402CV1SANGABRIEL GONZALEZ ISMAEL         00001752820058427300000850
201223SAGR570310DI3SANCHEZ GARCIA ROSALVA             00001152830038427700000850
201223SAGV5105117U9SANTAMARIA GARCIA VIRGINIA         00001582390052746300000850
201223SALE620805GM2DE LOS SANTOS LEON EMIGDIA         00002372130079071000000850
201223SALE660606489SANTAMARIA LOPEZ EVA               00001630010054333700000850
201223SALS660628BI9SANCHEZ LOPEZ MARIA DEL SOCORRO    00000820830027361000000000
201223SAMI650312397SASTURRIAS MARTINEZ IRIS ALMIRA    00000617510020583700000850
201223SAMJ710113CG9SANCHEZ MORALES JOSE JUAN          00000349330011644300000850
201223SAPM720718781SASTRE PEREZ MARCIAL               00001139920037997300000850
201223SARF620501GP7SANCHEZ RAMIREZ FLORINA            00000358150011938300000850
201223SARM7005312B1SAYAGO REYES MARIA                 00001203230040107700000850
201223SARS671007QWASALINAS ROMERO SERGIO              00002876270095875700000850
201223SASE700916TD3SANTIAGO SOLORZANO EVA             00003427020114234000000850
201223SAVE631128H47DE LOS SANTOS VAZQUEZ ESTELA       00003158540105284700000850
201223SAVM610705TJASANCHEZ VAZQUEZ MARGARITA          00003158540105284700000850
201223SAWM661102P30SANCHEZ WHASINGTON MARTHA PATRICIA 00000939200031306700000850
201223SAZF720621AU1SANCHEZ ZUNIGA FLOR DE MARIA       00005031560167718700000850
201223SEFC620628UB7SEDAS FERNANDEZ CIRLA DE LOS ANGELE00001543610051453700000850
201223SELA640222F40SEGUNDO LOPEZ ALMA DELIA           00001371330045711000000850
201223SEVF630207KS4SERRANO VAZQUEZ FELIPE             00006877440229248000000850
201223SIMR730104FL9SILVA MOLINA ROSA ELENA            00001345720044857300000850
201223SIMS700225CZ4SIFUENTES MORENO SARA ISELA        00002461520082050700000850
201223SOAJ7101028W3SOLANO AGUILAR JUDITH              00003989680132989300000850
201223SODJ741216CQ0SOSA DELGADO JUAN JOSE             00001044760034825300000850
201223SODT6803127LASOSA DIAZ TERESA DE JESUS          00001375400045846700000850
201223SOLC630717AD6SOLANO LOPEZ MARIA DEL CARMEN      00003253980108466000000850
201223SOME571125PF9SOLA MURILLO EVA JAZMIN            00002161980072066000000850
201223SONJ670318JB0SOTO NAVARRO JOSEFINA              00001061680035389300000850
201223SORA480827FTASOSA RAMIREZ ARMANDO               00000896070029869000000850
201223SOVA690105F80SOSA VARGAS ADRIANA                00001150150038338300000850
201223SOVC7305308A6SOTO VELASCO CARLOS FERNANDO       00001139920037997300000850
201223SOVR590923B99SOSA VILLAMIL RICARDO              00001019480033982700000850
201223SUCM550415FS4SUAREZ CRUZ MAGDALENA              00002137710071257000000850
201223SUCR701007I31SUANES CONTRERAS MARIA DEL ROSARIO 00001095320036510700000850
201223TEHD730425M74TEHUITZIL HERNANDEZ DULCE MARIA    00000793940026464700000850
201223TEMM5907198Q0TEJEDA MORALES MINERVA MARIA       00001773120059104000000850
201223TIGG620608Q80TIRADO GOMEZ GUADALUPE             00001582390052746300000850
201223TITI641219AQ7TINOCO TAPIA MARIA ICELA           00001145870038195700000850
201223TITS680826M12TINOCO TAPIA SANDRA                00001548170051605700000850
201223TOAD690202312TORRES DEL ANGEL DORA ALICIA       00001525380050846000000850
201223TOAR691114TL3TORIBIO AQUINO ROSA                00001200630040021000000850
201223TOCE6510146R8TORRES CARRILLO EMELY              00001466030048867700000850
201223TOCE7309276U0TORIBIO CAMPOS MARIA ELIZABETH     00000895600029853300000850
201223TOCJ611129612TOLEDO CORTES JAIME ALBERTO        00002579200085973300000850
201223TOCJ770302IH9TORRES CRUZ JORGE ENRIQUE          00001223380040779300000850
201223TOHD570920L32TORRES HERRERA DIOMEDES            00001084150036138300000850
201223TOLC710714CU3TORRES LUIS CARMEN                 00001202990040099700000850
201223TOMB650304AJ5TZOPITL MIXCOHUA BEATRIZ           00001027910034263700000850
201223TOME680324G99TOLENTINO MELCHI ELIZABETH         00001129020037634000000850
201223TOMJ790106PS7TORRES MARURE JULIO EFREN          00001303140043438000000850
201223TOOC760129995TORRES ORTIZ CARLOS MANUEL         00001412990047099700000850
201223TORM6406134J1TORALES ROMERO MARCO ANTONIO       00001986530066217700000850
201223TOSG721008HS1DEL TORO SANCHEZ MARIA GABRIELA    00001112170037072300000850
201223TUGM581007SW8TUYIN GARCIA MATEO                 00001658020055267300000850
201223TUMF710125H67TRUJILLO MUNIZ FERNANDO            00000830350027678300000850
201223TURS6607223Z3TRUJILLO ROMERO SUSANA             00001078460035948700000850
201223UCFJ760219VD3UC FERRAEZ JENNY                   00001363690045456300000850
201223VAAA7112074N2VASQUEZ AGUILAR ALMA ROSA          00001264400042146700000850
201223VACJ7112282EAVAZQUEZ CASTILLO JESSICA           00001145870038195700000850
201223VACM650106PV1VARELA CONTRERAS MIGUEL GASPAR     00001168550038951700000850
201223VADN6609264X9VALENCIA DOMINGUEZ NORA            00000893980029799300000850
201223VAEA750610CM9VASQUEZ EUGENIO ALEJANDRO          00000952720031757300000850
201223VAGD770128FH1VAZQUEZ GOMEZ DAMARIS              00004282610142753700000850
201223VAGJ520214G60VALENCIA GONZALEZ JAVIER VALENTIN  00002233380074446000000850
201223VAJR590324LM5VAZQUEZ JAMESON ROSA MARIA         00001858150061938300000850
201223VALA760113NM8VARGAS LOPEZ AMALIA                00000274680009156000000850
201223VAMC631112999VAZQUEZ MURILLO JOSE CARLOS        00001843780061459300000850
201223VAME691127390VASQUEZ MONTES EDGAR RODOLFO       00001933550064451700000850
201223VAMJ661003L38VALDES MARTINEZ JUAN JOSE          00000269060005381200000850
201223VAMJ760216DN5VALDES MARQUEZ JORGE LUIS          00000758340025278000000850
201223VANB660326984VARGAS NUNEZ BRAULIO               00001582390052746300000850
201223VAPI710227HDAVALENCIA PAVON IVONNE              00001327350044245000000850
201223VARB8207132N2VALLEJOS RIOS BIANCA BERENICE      00000159680005322700000850
201223VASP610224TD0VALLE SANTIAGO PORFIRIA            00005083710169457000000850
201223VASR7809076H1VAZQUEZ SOLANO REGINA              00001587870052929000000850
201223VAVC750411ST7VASQUEZ VASQUEZ CRISTIAN GUILLERMO 00001778420059280700000850
201223VAVM5704251U3VASQUEZ Y VASQUEZ MARTHA ELVIA     00001264400042146700000850
201223VAVR711017Q39VASQUEZ VASQUEZ RODOLFO            00002767830092261000000850
201223VEBD7305131T2VELAZQUEZ BARRADAS DIANA           00001279870042662300000850
201223VEBJ761020957VELEZ BAUTISTA JORGE CRISTOFER     00001336070044535700000850
201223VECA681002D61VEGA CORTES MARIA DE LOS ANGELES   00001628930054297700000850
201223VEGJ660902L19VELA GONZALEZ JORGE ALBERTO        00003689530122984300000850
201223VEGL600920885VELASQUEZ GARCIA JOSE LUIS         00001947060064902000000850
201223VELE671227IY8VELASQUEZ LANDA EDNA ISELA         00001790330059677700000850
201223VELR6805055R8VENEGAS LEDESMA ROSA PATRICIA      00002682720089424000000850
201223VEMJ620906H57VERA MARTINEZ JORGE LUIS           00002353450078448300000850
201223VEMR660926KAAVEGA MELGAREJO ROSA ISELA          00001114760037158700000850
201223VEMR680103FX9VELAZQUEZ MORALES MARIA DEL ROSARIO00001455800048526700000850
201223VENM610815KA4VELAZQUEZ NAVARRO MONICA MARIA     00001790330059677700000850
201223VEPR650914FJ6VELA PORTILLA RUTH                 00001112170037072300000850
201223VERE6905087R1VELA ROSADO ELIEL OMAR             00000958800031960000000850
201223VERE730814GK0VEGA RODRIGUEZ MARIA ELENA         00001582390052746300000850
201223VESJ720131R30VERA SILVA JORGE BISMARCK          00001419500047316700000850
201223VESN700413J55VELA SANTOS NORMA                  00001686250056208300000850
201223VIFA7105113N5VILLEGAS FUENTES ANA CRUZ          00003601060120035300000850
201223VIGS720627QV1VIDAL GARCIA SALVADOR              00001971920065730700000850
201223VILA6309169W4VINAGRE LOPEZ MA. ASUNCION         00003010570100352300000850
201223VIMA690726Q91VILLEGAS MORGADO ALMA OFELIA       00001794390059813000000850
201223VIME640715AK6VICENTE MORALES ENRIQUE            00002005960066865300000850
201223VIMP730426U70VILLA MARTINEZ MARIA DEL PILAR     00000964490032149700000850
201223VIMS780806QU1VITE MARTINEZ SAHELY               00001820820060694000000850
201223VISD6610091P6VILLEGAS SANCHEZ DORA MARIA        00001535850051195000000850
201223VISP521101MY5VILLAVICENCIO SIERRA PEDRO DE JESUS00001996710066557000000850
201223VITF670306TQ0VIVEROS TORRES FELICIANO           00001220930040697700000850
201223XOCR7801028A3XOTLA COLORADO ROBERTO             00000799150026638300000850
201223ZAAP720427SR1ZALETA ALEJANDRE PEDRO DAVID       00002850400095013300000850
201223ZABL690419JV1ZARATE BAUTISTA LEONOR             00004163210138773700000850
201223ZABR7105293X8ZARATE BAUTISTA RAYMUNDO           00001336070044535700000850
201223ZACH7303254M8ZAPATA CORTES HUMBERTO             00001100270036675700000850
201223ZAHI630731BV8ZARATE HUESCA IGNACIO              00001061610035387000000850
201223ZAOE6104188L7ZARATE ORDONEZ EDELMIRA            00001858150061938300000850
201223ZAPA700810D8AZAYDEN PAVON ARGELIA               00001442770048092300000850
201223ZARA700520MK5ZAMORA REGALADO ALEJANDRO          00001133620037787300000850
201223ZAVT5002069A7ZAMUDIO VAZQUEZ TITA               00001904640063488000000850
201223ZAVV670517PQ8ZARATE VAZQUEZ VERONICA            00003330230111007700000850
201223ZEGT680115F70ZEPEDA GUTIERREZ MARIA TERESA      00002455300081843300000850
201223ZEKM660922NG2ZENTENO KIN MAURICIO               00000956600031886700000850
201223ZISV690428MU7ZILLI SANDOVAL VALERIO             00001433190047773000000850
201223ZONA7012267V9ZORRILLA NACOUD ALFREDO            00003256100108536700000850
201223ZURA721018IC3ZUNIGA RIOS ANA HAZEL              00001683450056115000000850
