10000028147461707190008COLEGIO DE BACH. DEL EDO DE VERACRUZQUINCENA: 201714    15D01
210010000000000181550000100000000000896660403000031
300015300100000000000090000001000000000902816067691620663700000000ALICIA TRINIDAD,ARANO/GOMEZ                                                                                                                                                                        000000                                                                                                                                                        
300015300100000000000020000001000000000902746209341580230100000000ALMA ROSA,DIAZ/MENDEZ                                                                                                                                                                              000000                                                                                                                                                        
300015300100000000000042000001000000000902821514631380122700000000ARTURO,ACOSTA/HERNANDEZ                                                                                                                                                                            000000                                                                                                                                                        
300015300100000000000120000001000000000902815836961990602800000000CALIXTO ARID,GARCIA/PONCE                                                                                                                                                                          000000                                                                                                                                                        
300015300100000000000140000001000000000902815936911940738200000000CESAR RUBEN,VASQUEZ/DE LA TORRE                                                                                                                                                                    000000                                                                                                                                                        
300015300100000000000010000001000000000902814929091030110100000000CRISTOBAL,CASTRO/CARVALLO                                                                                                                                                                          000000                                                                                                                                                        
300015300100000000000027000001000000000902815649931150289900000000DAMARIS,VAZQUEZ/GOMEZ                                                                                                                                                                              000000                                                                                                                                                        
300015300100000000000040000001000000000903575468681580810700000000EFRAIN,PASTRANA/URIBE                                                                                                                                                                              000000                                                                                                                                                        
300015300100000000000050000003000051771267398849961520613700000000ELIZABETH,CONTRERAS/HERNANDEZ                                                                                                                                                                      000000                                                                                                                                                        
300015300100000000000090000001000000000902816067771620663600000000EVA SOFIA,AZAMAR/VIDAL                                                                                                                                                                             000000                                                                                                                                                        
300015300100000000000021000003000052567813708647901990753500000000GABRIELA IRAIS,SALAZAR/RIVERA                                                                                                                                                                      000000                                                                                                                                                        
300015300100000000000100000001000000000903541358161150612700000000JORGE MARIO,AMEZCUA/GROSS                                                                                                                                                                          000000                                                                                                                                                        
300015300100000000000030000001000000000902815318311260609600000000JOSE LINDEL,ZAPATA/TORRES                                                                                                                                                                          000000                                                                                                                                                        
300015300100000000000020000001000000000902814955921360449100000000JUAN LUIS,LOPEZ/MORALES                                                                                                                                                                            000000                                                                                                                                                        
300015300100000000000040000001000000000902816208771470100600000000JUSTINA,ARGUELLO/COLORADO                                                                                                                                                                          000000                                                                                                                                                        
300015300100000000000040000001000000000902461608982710671500000000LIDIA DE JESUS,CORDERO/CORTES                                                                                                                                                                      000000                                                                                                                                                        
300015300100000000000035000001000000000902815748751480580100000000LIDIA,ESCOBEDO/MARTINEZ                                                                                                                                                                            000000                                                                                                                                                        
300015300100000000000052000003000051771263965079971500648500000000LILIANA ISABEL,PEREZ/RAMOS                                                                                                                                                                         000000                                                                                                                                                        
300015300100000000000120000001000000000902172026891940693200000000LIZBETH YADIRA,GOMEZ/HERNANDEZ                                                                                                                                                                     000000                                                                                                                                                        
300015300100000000000120000001000000000902413324531950811900000000LUIS,HERRERA/ALONSO                                                                                                                                                                                000000                                                                                                                                                        
300015300100000000000205000001000000000903486613281990806600000000LUZ YESENIA,GRAJALES/PEREZ                                                                                                                                                                         000000                                                                                                                                                        
300015300100000000000100000003000052567818575457971020055800000000MANUEL,RICARDEZ/BERNAL                                                                                                                                                                             000000                                                                                                                                                        
300015300100000000000060000001000000000902912484291990601100000000MARCOS GIL,RAMON/MORALES                                                                                                                                                                           000000                                                                                                                                                        
300015300100000000000011000001000000000902815481221140095700000000MARIA DEL PILAR,GUERRERO/CANO                                                                                                                                                                      000000                                                                                                                                                        
300015300100000000000029000001000000000902815807431940415400000000MARIA ELENA,JIMENEZ/ORDAZ                                                                                                                                                                          000000                                                                                                                                                        
300015300100000000000020000001000000000902814956651200656100000000MARIA ESTHER,MONTENEGRO/GODINES                                                                                                                                                                    000000                                                                                                                                                        
300015300100000000000040000001000000000902816187671900571500000000MARIO ANTONIO ALBERTO,MARTINEZ/GUZMAN                                                                                                                                                              000000                                                                                                                                                        
300015300100000000000051000001000000000701056322211990595300000000OSCAR RICARDO,MONTERO/SANCHEZ                                                                                                                                                                      000000                                                                                                                                                        
300015300100000000000030000001000000000902815773191960103000000000PAZ,JACOME/YOBAL                                                                                                                                                                                   000000                                                                                                                                                        
300015300100000000000030000001000000000901268311011300069400000000RAUL,HUERTA/IBARRA                                                                                                                                                                                 000000                                                                                                                                                        
300015300100000000000032500001000000000902815773271960091000000000ROSIBELL,MOLINA/LOZANO                                                                                                                                                                             000000                                                                                                                                                        
4001000031000000000018155000000001000000000018155000
