000000001                991424523326          000000000800000JOSE ALBERTO TORRES ESCRIBANO           012001
000000002                991439894136          000000000300000IDA ISABEL ALGARIN GONZALEZ             012001
000000003                992797930224          000000001500000MARIA CONCEPCION RIVERA VELASCO         012001
