201301AAAR690902TT1AZAMAR AGUILAR RAUL                00001061680035389300000850
201301AACC6909104G6AMADOR CABANZO CARLOS              00001865940062198000000850
201301AACC7410307R8ALFARO CASTILLO CLAUDIA DEL CARMEN 00000797170026572300000850
201301AAEL690105P46ALCAZAR ESQUIVEL MARIA LETICIA     00001880520062684000000850
201301AAEP720128S10ALVAREZ ENRIQUEZ PEDRO             00003085560102852000000850
201301AALS631017GI6ANDRADE LARA SALOMON               00001688430056281000000850
201301AAMA730104MC1ALVAREZ MARCIAL AURORA             00001220930040697700000850
201301AAMB7011101I4ANDRADE MARTINEZ BLANCA MARGARITA  00001168550038951700000850
201301AAMR550830TB2ALARCON MORA RUBEN                 00000839810027993700000850
201301AARL7501261H9AMADOR RANGEL LORENA               00001164440038814700000850
201301AASL700926PH3ALVAREZ DE LOS SANTOS LUCIA        00001129020037634000000850
201301AEAE740917DU5ACEVEDO AGUILAR EDUARDO            00001499100049970000000850
201301AEGJ650805V96ALEMAN GUZMAN JORGE                00002761690092056300000850
201301AEGM8203161P7DEL ANGEL GALLARDO MARY ANSELMA    00001372950045765000000850
201301AEJV620916425ARRES JIMENEZ MARIA VICTORIA       00003620180120672700000850
201301AELE660428G49ALEJANDRO LOPEZ EDILIA             00005003020166767300000850
201301AEMA68012293AABREU MARTINEZ MARIA DE LOS ANGELES00001336070044535700000850
201301AEQL631219CA2ARENAS QUESADA MARIA DE LOURDES    00001396220046540700000850
201301AIBP7608256B1ANIMAS BETANCOURT PATRICIA         00001095320036510700000850
201301AIEE700105N48AVILES ESCALANTE EUSEBIO GERARDO   00001061610035387000000850
201301AIGA691218G65ANTILLON GONZALEZ ANA ELISA        00001452900048430000000850
201301AIHJ640711AG2ARRIAGA HERVERT JAVIER             00002090650069688300000850
201301AILL640923GH3ALVIZAR LOPEZ LINA                 00000396970013232300000850
201301AIOR631028V76ARRIETA OCHOA RAUL                 00000628470125694000000850
201301AISJ8012158B6ARIAS SANTOS JENY MARGARITA        00000383240012774700000850
201301AOAS630210956ALOR ANTONIO SILVIA                00002106570070219000000850
201301AOCJ6903274L2APONTE CUACUA JUAN ADOLFO          00001097060036568700000850
201301AOCJ720803EG3ALOR CASTILLO JUANA DEL ROSARIO    00001541960051398700000850
201301AOFM690407GJAARCOS FIERRO MONICA                00001380260046008700000850
201301AOHA6112158M0ACOSTA HERNANDEZ ARTURO            00001336070044535700000850
201301AOHC621001NA6ACOSTA HERNANDEZ CARLOS            00002339460077982000000850
201301AOHM731204DL5ANTONIO HERRERA MOISES             00000059310001977000000000
201301AOLF630715N84ANTONIO LOPEZ FRANCO               00006877440229248000000850
201301AOSA500219FR8ANTONIO SANTOS ALVARO              00000940660031355300000850
201301AOSM670902NI8ANOTA SANCHEZ MARTHA ELIZABETH     00001363690045456300000850
201301AOVA570827PLAARCOS VERA ARMANDO                 00000793940026464700000850
201301AOVF661102AW4ANTONIO VIDAL FREDY                00001063870035462300000850
201301AUCI6912246W9AGUILAR CASTILLO MARIA IRMA        00001115650037188300000850
201301AUMM701103HZ2AGUILAR MARTINEZ MARTIN            00001817060060568700000850
201301AUOG560223MU7AQUINO ORDAZ GENARO                00001013450033781700000850
201301AURJ5712067F4ARGUELLES RAMOS JAIME              00001970770065692300000850
201301BAAH5710312T1BRAVO AZAMAR HECTOR                00001489310049643700000850
201301BACM611115IQ2BARAJAS CRUZ MARTHA ELENA          00003134930104497700000850
201301BADO790227DX9BARRADAS DOMINGUEZ OSVALDO         00003620180120672700000850
201301BAGA680805EB3BAUTISTA GARCIA ABEL               00002148120071604000000850
201301BAME700706L34BASTARD MIJANGOS ERIKA ISABEL OSIRI00003261450108715000000850
201301BARA551103PN8BASALDUA RODRIGUEZ ARTURO          00003223430107447700000850
201301BECL760713AEABETANZOS CORONADO LILIANA          00000854260028475300000850
201301BEGC6301249I1BECERRA GARCIA MARIA DEL CARMEN    00001897000063233300000850
201301BEGR8010134W5BELTRAN GARCIA RUBI BIVIANA        00000942180031406000000850
201301BELL580810DJABEZARES LOPEZ LUIS REY             00001318810043960300000850
201301BEOE520319GX6BENAVIDES ORTUNO ELEUTERIA         00000936930031231000000850
201301BESB7010081D9BERNAL SOBREVILLA BLANCA ESTELA    00002833340094444700000850
201301BOOR7709248X9BOJORQUEZ ORTIZ RAUL FERNANDO      00004282610142753700000850
201301BOPF720707GL4BONILLA PRADO FERMIN               00000653540021784700000850
201301BOYO680210B32BORBOA YANES OLGA                  00001393450046448300000850
201301BUMJ670215CN1BURGOS MORALES JORGE LUIS          00002034940067831300000850
201301BUMP540228N20BURGOS MORALES MARIA DEL PILAR     00002751330091711000000850
201301BURA690210QP0BUSTAMANTE RUIZ ADRIANA            00001858150061938300000850
201301CAAE660806A31CHAVEZ ANGELES EDUARDO             00003620180120672700000850
201301CAAE7302148A3CASTRO ACEVEDO ESMERALDA           00001112170037072300000850
201301CAAN6804154W8CANO AGUIRRE NORA                  00001807040060234700000850
201301CAAR640508NJ3CASTELLANOS ARAN ROBERTO           00000936930031231000000850
201301CABF560216PC9CASTILLO BLASCO FRIEDA             00000617510020583700000850
201301CABJ721111625CHAVEZ BASURTO MARIA DE JESUS      00002953980098466000000850
201301CACC710116N60CARRILLO CONSUEGRA CARLOS MELESIO  00003388370112945700000850
201301CACH6109281V0CASTELLANOS CORDOVA HERIBERTO      00005029090167636300000850
201301CACI820423U77CARRERA CALDERON ISRAEL            00000812930027097700000850
201301CACL690210MJ4CAMAS CEBALLOS MARIA DE LOURDES    00003670060122335300000850
201301CACP720603VA2CANCINO CRUZ PABLO                 00002858690095289700000850
201301CACR721025TN6CANO CRUZ ROCIO DEL YAZMIN         00001892210063073700000850
201301CACS651128KT1CARRASCO CRUZ SILVIA               00004925000164166700000850
201301CAFD711208INACANCINO FLORES DANIEL GERARDO      00002198330073277700000850
201301CAFG670625LZ1CANCINO FLORES GUILLERMINA ARACELI 00001942610064753700000850
201301CAFR650721PW8CACERES FLORES ROSA ELENA          00001405260046842000000850
201301CAGN711110DH3CAPISTRAN GARCIA NINFA             00002497490083249700000850
201301CAGX8601168W8CARRISALES GARCIA ADRIAN ISIDRO    00000943660031455300000850
201301CAHE720112KP1CARDOSO HUERTA MARIA EUGENIA       00001078460035948700000850
201301CAHR680309SC8CASANOVA HERNANDEZ MARIA DEL ROSARI00001393450046448300000850
201301CALC640408LH3CARDENAS LUNA CARLOS               00003331010111033700000850
201301CALE700516GY4CHACON LOPEZ EMILIANO              00003119070103969000000850
201301CAMG730814V3ACASTILLO MENDOZA GUADALUPE         00001129020037634000000850
201301CAMO7508147Q8CHAVEZ MUNOZ JOSE OCTAVIO          00000972130032404300000850
201301CAMP691012EW2CASTILLO MORALES PILAR AMERICA     00001304940043498000000850
201301CAPO5911046J9CASTILLO PALENCIA OFELIA           00003697700123256700000850
201301CARG651214J19CAMPOS RODRIGUEZ GUILLERMO         00002979790099326300000850
201301CARI670909HAACASTELLANOS RUIZ ISABEL CRISTINA   00001582390052746300000850
201301CARJ690816NI7CABRERA RAYON JOAQUIN              00001079750035991700000850
201301CARV6502027N4CASTELLANOS RUIZ VICENTE           00000909380030312700000850
201301CASM640121JP4CHAVEZ SANCHEZ MEINARDA            00003052580101752700000850
201301CATG700202QB5CAMPOS TERAN GLADIS FABIOLA        00001455800048526700000000
201301CATJ6109274E0CASTELLANOS TEJEDA JUDITH          00003038810101293700000850
201301CATJ710122965CARDENAS TORRES MARIA DE JESUS     00001559120051970700000850
201301CATV750510F53CARRION TADEO VICTOR MANUEL        00002491050083035000000850
201301CAVA700409TG6CASTILLA VARGAS ANGELICA           00002531860084395300000850
201301CAVD5912122V2CASTILLO VASQUEZ DELFINO           00000396670013222300000850
201301CAVE620604TY6CABRERA VAZQUEZ ERNESTINA          00001845900061530000000850
201301CEAA651128IRACESPEDES ARTEAGA ANA BERTHA        00001970770065692300000850
201301CIBR720210T17CHICUELLAR BERRIEL RAFAEL          00000419480013982700000850
201301CIMC691226A97CRIOLLO MARIN CARMEN CLAUDIA       00003095070103169000000850
201301CIMK790707PW3CISNEROS MORAN KARINA              00000817010027233700000850
201301COAJ7307122A0CORONEL DEL ANGEL JOEL             00001478000049266700000850
201301COBE610714GG2CONDE BAROJAS ENRIQUE              00004259130141971000000850
201301COBM671103HK0CORTAZA BARAHONA MARTIN ANTONIO    00001621890054063000000850
201301CODY780209IK3COBOS DOMINGUEZ YOLANDA PATRICIA   00001027910034263700000850
201301COFL6409219T6CORDOVA FONSECA LETICIA            00001047990034933000000850
201301COFL651129NF6CORTES FLORES LUZ DEL CARMEN       00002729170090972300000850
201301COHA7105042DACONTRERAS HERNANDEZ ALEJANDRO      00002876390095879700000850
201301COHG820916J89CORTES HUETO GABRIEL               00000960510032017000000850
201301COLM7103298Y8COBILT LANDA MARCOS DANIEL         00003388370112945700000850
201301COMS610908T14CONTRERAS MORA SERGIO ADRIAN       00000722760024092000000850
201301COPL720819CH9CORTES PULIDO LUIS MANUEL          00001167840038928000000850
201301CORC760812EW2CORONA RIVERA CLARA                00004925000164166700000850
201301CORD7005088IACONTRERAS ROSARIO DELIA            00002262990075433000000850
201301CORE471125B22CHONTAL RIVEROLL ERASMO            00001036040034534700000850
201301COZJ701110ECACONTRERAS ZUNIGA JUANA ELIZABETH   00000719390023979700000850
201301CUBS701116Q24CRUZ BONILLA SAUL                  00001914460063815300000850
201301CUCG680720F77CRUZ CRUZ GERONIMO                 00001393450046448300000850
201301CUCI700217IZ4CUMPLIDO CONTRERAS IRMA JOSEFINA   00002198330073277700000850
201301CUHG6603255C3CRUZ HERRERA GABRIEL               00003347480111582700000850
201301CUIN720102872CRUZ IBARRA NANCY                  00001304940043498000000850
201301CUML6405059J7CRUZ MENDOZA LAURA PATRICIA        00000987770032925700000850
201301CUMO6301031N1CRUZ MARTINEZ OSCAR                00005247140174904700000850
201301CUMP590805BE0CRUZ MARTINEZ PEDRO                00000304840060968000000850
201301CURS630127BC4CRUZ ROSALES SAMUEL                00001397330046577700000850
201301CURV641108U14CRUZ RUIZ VICTORINO                00001455800048526700000850
201301CUSM7109038P7CRUZ SANCHEZ MIGUEL ANGEL          00003075020102500700000850
201301DADG6103316E0DAMIAN DOMINGUEZ GLORIA            00002875570095852300000850
201301DAHS700917BI5DANTES HERNANDEZ SONIA ELIZABETH   00001345720044857300000850
201301DEHL5910196I4DELGADO HERNANDEZ LAURA ELENA      00000908770030292300000850
201301DICE630303B80DIONET CHAVEZ EDITH                00000726020024200700000850
201301DIGM6910086H3DIONISIO GUILLEN MARTHA ALICIA     00002873380095779300000850
201301DIVL5411201D2DIAZ VILLA JOSE LUIS               00001391580046386000000850
201301DOCI641102FV4DOMINGUEZ CUACUA MARIA ISABEL      00001185540039518000000850
201301DOLA690927196DOMINGUEZ LEON ARACELY             00001920820064027300000850
201301DOMV610209IE9DOMINGUEZ MENDEZ VICTOR MANUEL     00000838150027938300000850
201301DOPB7106031Z8DOMINGUEZ PEREZ BERTHA OLIVIA      00001163520038784000000850
201301DORM780227GI7DOMINGUEZ RUIZ MIGUEL ANGEL        00001000250033341700000850
201301EEBA7301133W3ESPEJO BARRADAS JOSE ANTONIO       00001769590058986300000850
201301EERN750706ECAELENA ROJAS NORMA ISELA            00001055930035197700000850
201301EIGC710817311ESPINOZA GONZALEZ CARLOS           00000298390059678000000850
201301EILM7209089F7ESPINOSA LARA MONTSERRAT           00001462350048745000000850
201301EIRC640311HN9ESPINOZA REAL CECILIA              00001278230042607700000850
201301EIRG610207BW0ELIAS RODRIGUEZ MARIA GUADALUPE    00001832540061084700000850
201301EIVE581107NK6ENRIQUEZ VASQUEZ ESTELA            00001507400050246700000850
201301EOMP710127168ESCORCIA MARTINEZ PAULA            00002508960083632000000850
201301FABC771218227FAJARDO BERNABE MARIA DEL CARMEN   00000767470025582300000850
201301FAHS8106166J8FRANCO HERNANDEZ SALVADOR          00001969470065649000000850
201301FAPT720605H37FAJARDO PASTRANA TERESA DE LOS MILA00000936930031231000000850
201301FEAP6101243S8FERNANDEZ ARTEAGA MARIA DE LA PAZ P00004641320154710700000850
201301FECM720916LR5FERRAL CRUZ MARISSA                00003620180120672700000850
201301FEGC571104771FERNANDEZ GOMEZ CARLOS             00001145870038195700000850
201301FEGE550818HL4FERNANDEZ GOMEZ MARIA ELENA        00003122210104073700000850
201301FELJ741205642FERNANDEZ LAGUNES JOEL ANGEL       00000484300016143300000850
201301FEPB7702179W7FENTANES PRIETO BEATRIZ            00000688920022964000000850
201301FEPC681127LD7FENTANES PRIETO CATALINA           00001817060060568700000850
201301FOBL631029K65FLORES BATISTA JOSE LUIS           00001066930035564300000850
201301FOCA6105143D5FLORES CARRASCO MARIA DE LOS ANGELE00001025500034183300000850
201301FOGJ670506FP0FLORES GALINDO JUDITH              00000780700026023300000850
201301FOLF560312LL6FLORES LOBATO FRANCISCO            00000936930031231000000850
201301FOMF680623GL2FLORES MARTINEZ FLORA ROSALIA      00001658020055267300000850
201301FOPC621123ES5FLORES PACHECO CLEMENCIA           00001289230042974300000850
201301FORT680423NG7FLORES RIVERA TERESA DE JESUS      00002491850083061700000850
201301FORV511025SJ4FLORES RODRIGUEZ VIRGILIO          00001100090036669700000850
201301FOTL551019BE3FLORES TRONCO LAURA                00001858150061938300000850
201301FOVI6709113F4FLORES VARGAS INAID                00001595810053193700000850
201301FUGJ560128RM8FUENTES GARCIA JORGE ANGEL         00003147890104929700000850
201301FUPE590613PD9FUENTES PATRACA EMMA               00001061610035387000000850
201301FUSD621113LB9FUENTES SORIANO DIEGO              00001455550048518300000850
201301GAAN730218SV2GARCIA ARTEAGA NOEMI               00001535850051195000000850
201301GABP680323L21GARCES BARBOSA PATRICIA AURORA     00001079370035979000000850
201301GACC6711141Z4GARCIA CONSTANTINO CARMEN          00001227210040907000000850
201301GACI720627RB3GARCIA CUEVAS ILIANA DEL SOCORRO   00001250240041674700000850
201301GACN731205H61GALVAN CARRILLO NURY LAURA         00001076220035874000000850
201301GACO690114LGAGARCIA CRUZ ODORICO                00001710170057005700000850
201301GADG721206KT7GALMICHI DOMINGUEZ GRACIELA        00001535850051195000000850
201301GAFL620514RN3GAMEZ FERNANDEZ LETICIA            00001005650033521700000850
201301GAGE780323475GAYTAN GAYTAN EDITH                00001284410042813700000850
201301GAGJ601225SA9GARCIA GOMEZ MARIA DE JESUS        00001559120051970700000850
201301GAGM680615L88GARCIA GIL MARLENE                 00001914460063815300000850
201301GAGV610514E19GAMEZ GONZALEZ MARIA VICTORIA      00001455550048518300000000
201301GAHC710226LN8GARCIA HERNANDEZ CLAUDIA ALEJANDRA 00001746660058222000000850
201301GAHO630803V10GARCIA HERRERA OLGA LIDIA          00000919290030643000000850
201301GAHR710524NH9GARCIA HERNANDEZ MARIA DEL ROSARIO 00000972580032419300000850
201301GAJA751104Q16GALEANA JIMENEZ ANA KANI           00002146130071537700000850
201301GAJU531212R7AGALLARDO  JUAN CARLOS              00002256100075203300000850
201301GALA680507T17GARCIA LAVALLE ALBERTO             00003085560102852000000850
201301GALC730403UN5GRAJALES LAGUNES MARIA CONCEPCION  00001188020039600700000850
201301GALI621119A76GRANADOS LOPEZ MARIA ISABEL        00002741780091392700000850
201301GALJ6412074Q9GAMBOA LARA JULIO RUBEN            00002907330096911000000850
201301GALJ710215DA8GARCIA LAVALLE JOSEFA              00003122000104066700000850
201301GALS640605AH1GARZA LOPEZ SONIA CECILIA          00004395950146531700000850
201301GAMA710312PI5GALICIA MONTES ANGELA              00002270650075688300000850
201301GAMA710521UW2GALVEZ MEDINA ANILU                00001582390052746300000850
201301GAMG6602106A4GALINDO MARTINEZ GUILLERMO         00001773120059104000000850
201301GAPJ730319Q11GARDUZA PEREZ JOSE JUAN            00002310290077009700000850
201301GARL6909205C3GARCIA ROSILES LAURA               00001826690060889700000850
201301GASA580203E96GRACIA SINTA ARTURO                00002689620089654000000850
201301GASE6801236X4GALINDO SILVETTI EVA               00002999980099999300000850
201301GAVO410510IS1GARZA VALDES OLIVIA                00000923150030771700000850
201301GAZR570429IX1GRAJALES ZURITA ROSA MARIA         00001264400042146700000850
201301GEML650919BL8GREEN MUNOZ LETICIA                00001914460063815300000850
201301GEUM690922MN7GERONIMO URBINA MAURICIO           00002225120074170700000850
201301GICJ651006EP3GILBON CALDERON JAVIER             00004282610142753700000850
201301GIRH721002CZ7GIL REYES HILDA LILI               00003143150104771700000850
201301GOAA6307268D2GONZALEZ ASCENCIO ANA LUISA        00001004740033491300000850
201301GOAC730928F7AGOMEZ AMOR CLAUDIA VERONICA        00001164440038814700000850
201301GOAT7204088W1GOMEZ ANDRES TERESA                00001434400047813300000850
201301GOCN690220HN7GONZALEZ CHINO NORMA PATRICIA      00001304880043496000000850
201301GODO620928G23GONZALEZ DOMINGUEZ OLGA ELIZABETH  00001439670047989000000850
201301GOER400119B25GOMEZ ESPINOZA MARIA RAQUEL        00000882890029429700000850
201301GOEY800801FU0GONZALEZ ENRIQUEZ YOHAANA          00001041270034709000000850
201301GOFR601023EJ6GONZALEZ  FRANCISCA                00002938160097938700000850
201301GOGG6602242L2GONZALEZ GARCIA GABRIEL            00002245700074856700000850
201301GOGR621023QK4GONZALEZ GARCIA MARIA DEL ROSARIO  00000879320029310700000850
201301GOHR510610KD0GONZALEZ HERNANDEZ ROBERTO         00000886560029552000000850
201301GOLC650808KFAGOMEZ LARA JOSE DEL CARMEN         00001970770065692300000850
201301GOLG710814642GOMEZ LARA GERARDO                 00000895600029853300000850
201301GOPI700516S80GOMEZ PONCE DE LEON ISELA          00003096910103230300000850
201301GORG830923538GOMEZ RODRIGUEZ GUSTAVO            00000884730029491000000850
201301GOSL7405054C3GONZALEZ SANTILLAN LILIA           00000452580015086000000850
201301GOSL7810189D4GOMEZ SALAS LAURA YANET            00004282610142753700000850
201301GUAM8106124T0GUZMAN ARRIAGA MAYA LUZ            00001407690046923000000850
201301GUBV761007V96GUILLEN BARRADAS VIANNEY           00001482010049400300000850
201301GUCG780404AH8GUERRERO CRUZ MARIA GUADALUPE YAZMI00001270300042343300000850
201301GUCP660412T84GUERRERO CANO MARIA DEL PILAR      00005663750188791700000850
201301GUGA540913253GUTIERREZ GONZALEZ AMADO           00001803460060115300000850
201301GUSG631106TR0GUTIERREZ SAMPAYO GABRIEL          00000790650026355000000850
201301GUSR720519DY3GUTIERREZ SOBREVILLA ROSALBA       00002262990075433000000850
201301GUVR651110GV5GUTIERREZ VEGA RUFINA              00001095320036510700000850
201301HEAA650319CI1HERNANDEZ ALONSO JOSE ALBINO       00001634740054491300000850
201301HEAD570922MW1HERNANDEZ AGUILERA DOMINGA         00003164260105475300000850
201301HEAJ56081712AHERNANDEZ DEL ANGEL JACINTO        00001132460037748700000850
201301HEBJ661023HJ4HERRERA BARREDA MARIA DE JESUS     00002777690092589700000850
201301HEBR720912MS7HERNANDEZ BERNAL RUTH ESTELA       00001149070038302300000850
201301HECA660821KY9HERNANDEZ CRUZ MARIA DE LOS ANGELES00001195080039836000000850
201301HECI701106LU9HERNANDEZ CRUZ IRMA JANET          00000778060025935300000850
201301HECM610104728HERNANDEZ CAMPOS MARIO ALBERTO     00000614920020497300000850
201301HEDA640527154HERRERA DIAZ MARIA DE LOS ANGELES  00003594850119828300000850
201301HEHE720227I89HERNANDEZ HERNANDEZ ELIZABETH      00002143910071463700000850
201301HEJD610725SU1HERNANDEZ JIMENEZ DORA ALICIA      00004359700145323300000850
201301HELI651208CT4HERNANDEZ LOZANO IRENE             00001582390052746300000850
201301HELR770307KE2HERRERA LOPEZ ROSALINDA            00001270300042343300000850
201301HELT670629PA0HERNANDEZ LECHUGA MARIA TERESA     00003796850126561700000850
201301HEMA680510CC2HERNANDEZ MONROY ANTONINO          00002427190080906300000850
201301HEMF680811TH9HERNANDEZ MORALES FAUSTO ENRIQUE   00001220310040677000000850
201301HEOB681206G58HERNANDEZ OCHOA BALBINA            00001264400042146700000000
201301HEPV570702M5AHERNANDEZ PASTRANA VICTOR OCTAVIO  00000757120025237300000850
201301HERE810214TG6HERNANDEZ RONZON EMANUEL           00001401510046717000000850
201301HERO650715MU7HERNANDEZ RUIZ OZIEL               00001025440034181300000850
201301HERR630915980HERNANDEZ ROSARIO REYNA DEL CARMEN 00000709250023641700000850
201301HESM7309154Q6HERNANDEZ SANCHEZ MAYRA            00002467630082254300000850
201301HESS411029536HERNANDEZ SANCHEZ SIMON            00000869720028990700000850
201301HESS6111291T6HERNANDEZ SANCHEZ SATURNINO        00002741530091384300000850
201301HETF6506277R8HERNANDEZ TAXILAGA FERNANDO FRANCIS00001634180054472700000850
201301HEVD731229KL8HERNANDEZ VAZQUEZ DAVID            00001011060033702000000850
201301HEVJ690522T39HERNANDEZ VAZQUEZ JORGE            00000433800014460000000850
201301HEVJ7310271K5HERNANDEZ VAZQUEZ JOSE JUVENCIO    00000740930024697700000850
201301HEVS710708IK6HERNANDEZ VEGA SILVIA              00001078460035948700000850
201301HEZK741018UY0HERNANDEZ ZUMAYA KARLA ERIKA       00001507230050241000000850
201301HURE530816QVAHUERTA RIVERA ERNESTINA            00002346520078217300000850
201301IASA750310V9AISLAS SANTIAGO ALMA VERONICA       00003001620100054000000850
201301JACO791218NN1JARDINES COBOS ORLANDO             00000613980020466000000850
201301JADG620507781JARA DIAZ GISELA                   00002224970074165700000850
201301JADR6101067G0JARA DIAZ REINA                    00002149940071664700000850
201301JASA630712J46JARDINES SEGURA ARMANDO            00002510320083677300000000
201301JEPJ6101199A9DE JESUS PAUL JOSEFA               00001386500046216700000850
201301JEPM740121IT5JEREZ PAVON MONICA EVA             00001412990047099700000850
201301JEPS660915JDADE JESUS PAUL SILVIA               00003152260105075300000850
201301JIDR710608DS0JIMENEZ DOMINGUEZ ROSARIO          00001167840038928000000850
201301JINV4205157IAJIMENEZ NUNEZ VICENTE JUSTINO      00004282610142753700000850
201301JIOE7804232G0JIMENEZ ORDAZ MARIA ELENA          00000826700027556700000850
201301JUMA650117CW3JUAREZ MENDEZ MARIA ANTONIA        00001559120051970700000850
201301JUMG710410BCAJUAREZ MARTINEZ MARIA GLORIA LETICI00001078460035948700000850
201301JUMJ601116JS3JUAREZ MARTINEZ JUANA              00002653700088456700000000
201301JURA620927I19JUAREZ RIVERA ADELAIDA             00003361190112039700000850
201301JUSL730822DZ7JUAREZ SANCHEZ LILIANA             00001095320036510700000850
201301LABJ6804122N2LARA BARCELATA JULIO CESAR         00001397330046577700000850
201301LABY781008FQ4LAGUNES BARRADAS YADIRA            00001270300042343300000850
201301LAHL700621F41LARA HERNANDEZ LUISA ESTHER        00001345720044857300000850
201301LARL6406287D0LAGUNES RODRIGUEZ MARIA LAURA      00000441990088398000000850
201301LAYR541030FQ9LAGUNES YEPEZ MARIA DEL ROSARIO    00001260740042024700000850
201301LECM720123PK5LEIJA CASTILLO MARTHA OFELIA       00001858150061938300000850
201301LEHN680908AE2LEON HERMIDA MARIA NATIVIDAD       00001559120051970700000850
201301LEMF700708BE3LENDECHY MENDOZA FRANCISCA         00001605660053522000000850
201301LEOV660514E60LEON ORDONEZ VICTOR ROGELIO        00003142680104756000000850
201301LETI670221D31LEON TEJEDA IRENE                  00002339460077982000000850
201301LIAE6803238M3LICEA ANDRADE ESTELA               00001325330044177700000850
201301LIAR580917SE9LINARES ABAD ROSELIA               00003073190102439700000850
201301LIVJ650812169LICONA VAZQUEZ JAVIER              00001693730056457700000000
201301LOAC620718CP5LOPEZ DEL ANGEL MARIA DEL CARMEN   00001628930054297700000850
201301LOBF610821477LOPEZ BALCAZAR FIDELA              00002430150081005000000850
201301LOCM681126GZ0LOPEZ CORDOVA MARTHA ALICIA        00000843120028104000000850
201301LOCP650915KP4LOYDA CRUZ PATRICIA                00001396220046540700000850
201301LOGC401104958LOPEZ GARCIA CARLOS                00005663750188791700000850
201301LOHC670821489LOPEZ HERNANDEZ CATALINA           00001513770050459000000850
201301LOLA741109G63LOPEZ LARA ALMA PATRICIA           00000828560027618700000850
201301LOMG6410119C5LOPEZ MORENO GENOVEVA              00001752450058415000000850
201301LOMG701212DB2LOPEZ MARTINEZ MARIA GUADALUPE     00002488130082937700000850
201301LOMJ6702159L0LOPEZ MORENO JOAQUIN ALBERTO       00001324830044161000000850
201301LOPM750119ER4LOPEZ PAVON MARISSA                00002938160097938700000850
201301LORO720829R76LOPEZ RIVAS OSCAR FRANCISCO        00001462350048745000000850
201301LOSA871024I89LOPEZ SEBA AMERICA                 00000724760024158700000850
201301LOSM660916DL8LOPEZ SALOMON MARIO                00000854260028475300000850
201301LOTR700724RQ0LOPEZ TRUJILLO MARIA ROSALBA       00001203230040107700000850
201301LOVG620919RB8LOPEZ VALDIVIA GENARO              00005983430199447700000850
201301LUZA621207260LUNA ZALETA MARIA DE LOS ANGELES   00001803460060115300000850
201301MAAE680708I35MARIN ARROYO ELIZABETH ARACELI     00001861630062054300000850
201301MAAG631117PT8MARTINEZ ALONSO GILMA OLINDA       00001917550063918300000850
201301MAAJ741009KN7MARTINEZ AVILA JUAN RODOLFO        00001136460037882000000850
201301MABI6608235P0MARCOS BENITO IRMA                 00002650070088335700000850
201301MACA7209273N5MATA CONTRERAS ARACELI             00001997560066585300000850
201301MACG690425QA0MARTINEZ CUERVO GUADALUPE          00001807390060246300000850
201301MAEH711231LF3MATEO ESCOBAR HECTOR LUIS          00001205770040192300000850
201301MAFI670114RS4MARQUEZ FERNANDEZ ISAURA           00003411980113732700000850
201301MAFS5908105N8MARTINEZ FLORES SUSANO             00002119360070645300000850
201301MAGE751128NZ2MARTINEZ GONZALEZ ESTEBAN          00001305940043531300000850
201301MAGS650709370MARTINEZ GOMEZ SONIA               00001832540061084700000850
201301MAHE291224G59MARTINEZ HERNANDEZ EUTIMIO         00001133620037787300000850
201301MAJT620828RU0MACIAS JIMENEZ MARIA TERESA        00003620180120672700000850
201301MAMA650721P54MARQUEZ MEDINA MARIA ANGELINA      00001371330045711000000850
201301MAMG720524AV8MATLA MONTERD GERARDO              00000405160013505300000850
201301MAMM720112M29MARTINEZ MASCORRO MA JOSEFA DEL ROS00001238620041287300000850
201301MANP680717CW7MARTINEZ NEPOMUCENO PATRICIA       00002516450083881700000850
201301MAOV670214I52MARTINEZ ORTEGA VICTOR             00001786340059544700000850
201301MAPA700628NJ5MARCOS PIOQUINTO ALBERTO           00001345720044857300000850
201301MAPA701122LR7MALDONADO PRIOR ARACELI            00001371330045711000000850
201301MAPC690314G5AMAR PONCE MARIA DEL CARMEN         00001112170037072300000850
201301MAPM7407223SAMARTINEZ PEREZ MARIA MAGDALENA     00001112170037072300000850
201301MARC690503HP6MAZA RIVERA MARIA DE LA CRUZ       00001763610058787000000850
201301MARL550222P21MATHEY RODRIGUEZ LUZ EDELMIRA      00000881820029394000000850
201301MARR651104P20MAYO RIVERA MARIA DEL ROCIO        00001434400047813300000850
201301MASA680505IGAMATEOS SANCHEZ MARIA DE LOS ANGELES00003842460128082000000850
201301MASR770830FM0MARTINEZ SEGURA MARIA DEL ROCIO    00002036060067868700000850
201301MAVA680202GM1MARTINEZ VILLARES ALEJANDRA        00001717550057251700000850
201301MAVA730226A61MARTINEZ VILLARES ANDREA           00000797170026572300000850
201301MECD720521J14MENENDEZ CRUZ DANIEL               00000799150026638300000850
201301MECL670210Q32MELGAREJO CASTRO MARIA DE LOURDES  00000972580032419300000850
201301MECM620221345MENDOZA CARMONA JOSE MANUEL        00001150150038338300000850
201301MECO7502279PAMERCADO COLUNGA OYUKI MARTHA ELENA 00001011060033702000000850
201301MEGM630226NW2MERAZ GOMEZ JOSE MANUEL            00000652180021739300000850
201301MELA660828FCAMENDEZ LOYA AGUSTINA               00001238620041287300000850
201301MEML790714QW3MENDOZA MUNOZ LAURA PATRICIA       00001665500055516700000850
201301MEMR761116GQ1MEDINA MALPICA ROSA ISELA          00004395950146531700000850
201301MEPA6912107CAMENDEZ PARRA ARACELI               00002101350070045000000850
201301MEPL600621RQ7MERAZ PONCE LUIS                   00001419500047316700000850
201301MERH690114LA9MELENDEZ REYES HAYDEE              00001241180041372700000850
201301MESA5906097F9MENDOZA SILVA ARACELI              00001535850051195000000850
201301MESV600111HF0MENDOZA SILVA VENONI               00002794580093152700000850
201301METE6305177Q4MEZA TEJEDA ERIK MANUEL            00000881820029394000000850
201301MIRI7101218Y2MIRANDA REYES INES                 00002561200085373300000850
201301MOAJ7602177TAMONTERO AMEN JUAN RAUL             00003829430127647700000850
201301MOBD5912222E9MORALES BONILLA DEMETRIO           00001167840038928000000850
201301MOCA661111MW4MOTA CHIQUITO JOSE ANTONIO         00003066990102233000000850
201301MOCF520526VC9MORA CARVAJAL FELIPE               00002662460088748700000850
201301MOCG6912158L8MONTORES CUELLAR GUADALUPE         00001886300062876700000850
201301MOCL700305722MORALES CRUZ MARIA LUISA           00001250240041674700000850
201301MOCM7903122M1MORALES CANSECO MISAEL             00000532550017751700000850
201301MOCV650925IV8MORALES CRUZ VIRGILIO              00001133620037787300000850
201301MODS730616RV1MORAN DOMINGUEZ SUSANA             00001132460037748700000850
201301MOHA660915P95MONFIL HERNANDEZ ANGEL             00002358840078628000000850
201301MOHR591218LGAMORENO HUERTA RUPERTA              00001803460060115300000850
201301MOHS610528C18MORALES HERNANDEZ SUSANA TRINIDAD  00002177230072574300000850
201301MOIA6810091R7MORALES ILLESCAS JOSE ALFREDO      00000715080023836000000850
201301MOLF710116IH5MOTA LOPEZ FRANCISCO JAVIER        00001490840049694700000850
201301MOLR7103071I1MOLINA LOZANO ROSIBELL             00001163520038784000000850
201301MOLS640513H90MORENO LOPEZ MARIA DEL SOCORRO     00000803830026794300000850
201301MOMA720621A53MOGUEL MARTINEZ ALFONSO            00001406880046896000000850
201301MOMA790503EVAMONTIEL MALDONADO ANWAR            00000968600032286700000850
201301MOMJ7012195X8MONTANO MERCADO JORGE LUIS         00001790330059677700000850
201301MOMR5207124L9MORALES MAGANA REYNALDA            00000426380014212700000850
201301MONG711214567MONJARAS NIZIMURA GUADALUPE        00001348760044958700000850
201301MOOL640206227MORALES OVANDO LUIS ENRIQUE        00002938160097938700000850
201301MOOM700117NX0MORGADO OLVERA MARGOT              00000892830029761000000850
201301MOPJ631229UU4MONTALVO PENA JUDITH               00001327020044234000000850
201301MOPJ650127VB2MORALES PIMENTEL JUAN ROBERTO      00001420260047342000000850
201301MOPM700330531MONTOYA PEREZ MARTHA ANGELICA      00002821900094063300000850
201301MORC710817BC9MORA RONQUILLO MARIA DEL CARMEN    00001011060033702000000850
201301MORM460903MI9MONTIEL RINCON MATILDE             00001213460040448700000850
201301MORR381026QP2MORALES RODRIGUEZ RUBEN            00001336070044535700000850
201301MOSB690520UM2MORGADO SANDOVAL BERNARDO          00000942180031406000000850
201301MOSG6204235YAMORALES SANCHEZ GEORGINA           00001582390052746300000850
201301MOSP660411726MOLINA SAGARDIA PEDRO GASPAR       00002950290098343000000850
201301MOTF710513KU3MORALES TEJEDA FATIMA              00001203230040107700000850
201301MOZM760614CR1MORALES ZULETA MIGUEL ANGEL        00001807280060242700000850
201301MUBJ720624M95MUNOZ BAUTISTA JUAN                00001736890057896300000850
201301MUCA670330M1AMURRIETA CUEVAS ADELINA            00003232160107738700000850
201301MURE690823CJAMUNOZ ROA ELIAZER                  00001829580060986000000850
201301NACA661119BS4NARANJO CORTES ADA ISABEL          00003112760103758700000850
201301NEGB580616LX9NERI GALINDO BEATRIZ IRENE         00001061610035387000000850
201301NICE740318HU6NINO CRUZ EDGAR CIANI              00000812930027097700000850
201301NIHJ690528SL2NICOLAS HERNANDEZ JORGE            00002199860073328700000850
201301NIMR720831URANICOLAS MARTINEZ RAMON             00000799150026638300000850
201301NIRF690222UU3NICOLAS RAMIREZ FLORENTINA         00000896600029886700000850
201301OEAR6212195UAORTEGA ALMANZA RAFAEL              00001204130040137700000850
201301OEGA7405118Q9OBREGON GANDARA ARACELI            00000983580032786000000850
201301OEHL630509BX9ORTEGA HERNANDEZ LAURA PATRICIA    00002559550085318300000850
201301OEPL660323JM0OBESKIN PEREZ LENIN                00002388850079628300000850
201301OIJJ600202S17ORTIZ JARILLO JORGE                00000173620005787300000000
201301OIJL6403187X9ORTIZ JOACHIN JOSE LUIS            00003533950117798300000850
201301OIMJ821005MR0ORTIZ MARTINEZ JULIO FELIPE        00005202990173433000000850
201301OIVY7811275Y1ORTIZ VILLALOBOS YENNY DEL CARMEN  00001162210038740300000850
201301OORA520204310OSOGOBIO RODRIGUEZ ARELI           00001686250056208300000850
201301OOTB6810179Y0OSORIO TORRES BLANCA MARGARITA     00002117160070572000000850
201301OOVA620212QT7OSORIO VIVEROS ALEJANDRO           00001834870061162300000850
201301OUML700220IA1OLGUIN MERAZ LORENA                00002135120071170700000850
201301OUMM780721469OLGUIN MARTINEZ JOSE MAXIMO        00002618690087289700000850
201301PABA570818TZ7PATINO BOND ALBERTO                00001816140060538000000850
201301PACA550529TZAPALAZUELOS CABRERA ADOLFO          00001628930054297700000850
201301PAMM6502181NAPALESTINA MENDOZA MARICELA         00001658020055267300000850
201301PAPD681109IY1PALMA PEREZ DEBBIE ADRIANA         00001304940043498000000850
201301PAPG701019857PAXTIAN PEREZ GEMA                 00001942610064753700000850
201301PECA790319GWAPEREZ CASTILLO ADRIANA             00004395950146531700000850
201301PECC670208B1APEREZ CABRERA CESAR ALBERTO        00001605660053522000000850
201301PEEC7002132E7PEREZ ESTRADA CASIMIRO             00004135180137839300000850
201301PEFC730406B76PEREZ FRANCISCO CANDELARIA         00001498620049954000000850
201301PEJN711127UA8PEREZ JUAREZ NIMBE ANTONIETA       00001349680044989300000850
201301PEPJ750713930PEREZ PEREZ JOEL                   00002661620088720700000850
201301PESA8001055J2PEREZ SOSA ARLETTE KARINA          00001103150036771700000850
201301PIFM611017TA4PRIMO FERNANDEZ MARGARITA          00001176690039223000000850
201301PIRJ651227H78PRIETO REYES JOSEFA                00000854260028475300000850
201301PIZG6905106A0PRIETO ZUNIGA GRACIELA             00001304940043498000000850
201301POHF690704TC3POSADAS HERNANDEZ FACUNDO          00001022680034089300000000
201301POPS6701122R3PORTILLA PORTELA SANDRA LUZ        00000291670009722300000850
201301POTS5812239C4PORTUGAL TORRES MARIA DEL SOCORRO  00002723480090782700000850
201301POZA800215KL8POLA ZANDATE ALVA YARERI           00001284530042817700000850
201301PUAJ780207S44PULIDO AZAMAR JENNIFFER            00000994210033140300000850
201301PURB650827IT8PUCHETA ROSAS BARTOLO              00001121540037384700000850
201301QUFA630124K83QUIROZ FLORES ALBERTO              00002848330094944300000850
201301QUMA601113BS3QUIROZ MORALES ALMA DELIA          00001582390052746300000850
201301QUOG540801LP6QUESADA OSORIO GERARDO ARTURO      00001582390052746300000850
201301RACA790322160RAMIREZ CASTILLO ANA MARIA         00000838150027938300000850
201301RACH550111PQ5RAMOS CUETO HORTENCIA              00001283000042766700000850
201301RACM6501286J0RAMIREZ CESPEDES MIREYA MARGARITA  00001397330046577700000850
201301RACM681221CA2RAMIREZ CASTILLO MIRTHA            00001803460060115300000850
201301RAFB620321EI7RANGEL FLORES BENITO               00001576170052539000000850
201301RAHJ810217LFARAMIREZ HERNANDEZ JOSE JUAN        00000842550028085000000850
201301RAMY820517C53RAMIREZ MARTINEZ YAZMIN            00001223380040779300000850
201301RAPR6609043Z6RAMOS PEREZ ROSA ISABEL            00001259710041990300000850
201301RARG7105073E4RAMIREZ REYNA GISELA               00003549460118315300000850
201301RASD690815FI8RAMIREZ SILVA DANIEL               00000490000016333300000000
201301RASJ700911UF1RAMIREZ SANTES JACINTO ALBERTO     00001710170057005700000850
201301RATJ750629BK3RAYO TORREBLANCA JUAN CARLOS       00001447250048241700000850
201301RAVA571130EY0RANGEL VITTI ANA JUDITH            00001810310060343700000850
201301RAVM7805207Q0RAMIREZ VAZQUEZ MARISELA           00001325330044177700000850
201301REAY720829T69REYES ARTEAGA YAZMIN ADRIANA       00001370170045672300000850
201301REEA711130EG9REYES ESPINOSA JOSE ANDRES         00001019480033982700000850
201301REIA580402N56REYES IZQUIERDO ADAUTO             00001067830035594300000850
201301REIT6001289Q8REYES IZQUIERDO TIRSO              00000803830026794300000850
201301REJM620221GE0REBOLLAR JIMENEZ MARGARITA         00004225280140842700000850
201301REMI620528PF6RENERO MENDIOLA ISMAEL             00000639850021328300000850
201301RERU651219544REYES RAMIREZ URBANO               00000943420188684000000850
201301RESA710111NA7REYES SANCHEZ ALEJANDRO            00001325330044177700000850
201301RIAC5512253B4RIVAS ALOR CARMEN EUGENIA          00001341330044711000000850
201301RIGA600828TG0RIVERA GONZALEZ AGUSTIN            00000909380030312700000850
201301RIMM6706036B3RIVERA MONTERO MATILDE             00001412990047099700000850
201301RIMM800114EU9RIOS MARTINEZ MARTINA              00001011220033707300000850
201301RIRB770912MK8RIZO REYES BERTHA LILIA            00001394860046495300000850
201301RIRN710806CH0RIVERA RIOS NOLBERTO               00001199720039990700000850
201301RISI600521124DEL RIO SILVA ISAIAS               00001386500046216700000850
201301RIVJ6511033B4RIOS VIVEROS JAVIER                00001336070044535700000850
201301ROAG5812208K8ROSALES ALMEIDA GABRIEL            00001367330045577700000850
201301ROAG690608MA7ROBLES AMARO MARIA GRACIA          00000864510028817000000850
201301ROBM660731EA2ROSAS BARRIOS MIGUEL ANGEL         00001185540039518000000850
201301ROCA621023723ROMERO CRUZ ALEJANDRO              00001759580058652700000850
201301ROCC730502QRARODRIGUEZ CRUZ MARIA CRUZ          00001325330044177700000850
201301ROCG570121KL9RODRIGUEZ CORDOBA GLADIS           00001203230040107700000850
201301ROCT570126MI3ROBLES COBOS MARIA TERESA          00001722830057427700000850
201301ROFA710816FQ1RODRIGUEZ FRANCO ADRIAN            00002848330094944300000850
201301ROFJ7102083P4ROSARIO FERNANDEZ JUANA            00001223380040779300000850
201301ROGE690816NT8RODRIGUEZ GONZALEZ ESTEFANIA       00004163210138773700000850
201301ROGR770502514RODRIGUEZ GARCIA RAUL              00001095320036510700000850
201301ROJF6702247X5RONZON JUAREZ FIDELIA              00001018170033939000000850
201301ROMC5807163P9ROJAS MENCIO MARIA DEL CARMEN      00001095320036510700000850
201301ROMC610617RN0ROSALES MARTINEZ CRUZ DEL CARMEN   00001202990040099700000850
201301ROMC620314RD9RODRIGUEZ MORALES CARLOS           00002722580090752700000850
201301ROMD700627V58RODRIGUEZ MARTINEZ DOMINGO         00001264160042138700000850
201301ROMF730925G52RODRIGUEZ MARTINEZ FELIPE DE JESUS 00002853170095105700000850
201301ROMH740127EW8RODRIGUEZ MARTINEZ HUGO            00001350740045024700000850
201301ROPG561210K78RODRIGUEZ PONCE MARIA GUADALUPE    00003171220105707300000850
201301ROPH701121DY1ROSETTE PEREZ JOSE HUGO            00000367500012250000000850
201301ROPN850530BY1ROUSTAND PAZOS NOE                 00001163520038784000000850
201301RORB590404DU2ROSAS REYES BENITO                 00000923150030771700000850
201301RORE580224P64RODRIGUEZ RAMIREZ MARIA ELENA      00001260740042024700000850
201301ROSJ6710203V2ROSALES SUAREZ JUAN CARLOS         00004925000164166700000850
201301ROSQ5812052XARONZON SOLIS QUIRINO               00002375950079198300000850
201301ROTE8111148E9RODRIGUEZ TAPIA ERIKA ALEJANDRA    00001496400049880000000850
201301ROVC650118HFAROMERO VILLARREAL CIRO             00001817060060568700000850
201301ROVD700222357ROMAN VEGA DOLORES                 00001163520038784000000850
201301ROVJ720304RZAROMAN VEGA JUANA LILIA             00001803460060115300000850
201301RUCE6604281Z3RUIZ CALLEJAS ELVIA                00001799590059986300000850
201301RUDM7405021LARUCABADO DIAZ MARIBEL              00001149070038302300000850
201301RUMD621012K66RUEDA DE LEON MONTIEL MARIA DEYANIR00002123520070784000000850
201301RUPC660716QL3RUIZ PEREZ CARLOS ENRIQUE          00001167840038928000000850
201301RURR551226KD3RUIZ RIVERA RODOLFO                00004395950146531700000850
201301SAAJ680723FH9DE LOS SANTOS AMBROCIO JOSEFINA    00000950710031690300000850
201301SABE640919QX1SANCHEZ BAUTISTA MARIA ELENA       00002133680071122700000850
201301SABR7512047A1SANTIAGO BORROMEO RAMON            00002803510093450300000850
201301SACL760923MS5SAGAHON CANALES LAURA ROCIO        00001767010058900300000850
201301SACP671025GL7SANTIAGO CRUZ PETRA                00004282610142753700000850
201301SALE620805GM2DE LOS SANTOS LEON EMIGDIA         00002372130079071000000850
201301SALE660606489SANTAMARIA LOPEZ EVA               00001630010054333700000850
201301SALS660628BI9SANCHEZ LOPEZ MARIA DEL SOCORRO    00000820830027361000000000
201301SAMI650312397SASTURRIAS MARTINEZ IRIS ALMIRA    00000617510020583700000850
201301SAMJ710113CG9SANCHEZ MORALES JOSE JUAN          00000349330011644300000850
201301SAPM720718781SASTRE PEREZ MARCIAL               00001139920037997300000850
201301SARF620501GP7SANCHEZ RAMIREZ FLORINA            00000358150011938300000850
201301SARM7005312B1SAYAGO REYES MARIA                 00001203230040107700000850
201301SARS671007QWASALINAS ROMERO SERGIO              00002876270095875700000850
201301SASE700916TD3SANTIAGO SOLORZANO EVA             00003427020114234000000850
201301SAVE631128H47DE LOS SANTOS VAZQUEZ ESTELA       00003158540105284700000850
201301SAVM610705TJASANCHEZ VAZQUEZ MARGARITA          00003158540105284700000850
201301SEFC620628UB7SEDAS FERNANDEZ CIRLA DE LOS ANGELE00001543610051453700000850
201301SELA640222F40SEGUNDO LOPEZ ALMA DELIA           00001371330045711000000850
201301SEVF630207KS4SERRANO VAZQUEZ FELIPE             00006877440229248000000850
201301SIMR730104FL9SILVA MOLINA ROSA ELENA            00001345720044857300000850
201301SIMS700225CZ4SIFUENTES MORENO SARA ISELA        00002461520082050700000850
201301SODJ741216CQ0SOSA DELGADO JUAN JOSE             00001044760034825300000850
201301SODT6803127LASOSA DIAZ TERESA DE JESUS          00001375400045846700000850
201301SORA480827FTASOSA RAMIREZ ARMANDO               00000909250030308300000850
201301SOVA690105F80SOSA VARGAS ADRIANA                00001150150038338300000850
201301SOVC7305308A6SOTO VELASCO CARLOS FERNANDO       00001139920037997300000850
201301SOVR590923B99SOSA VILLAMIL RICARDO              00001019480033982700000850
201301SUCR701007I31SUANES CONTRERAS MARIA DEL ROSARIO 00001095320036510700000850
201301TEHD730425M74TEHUITZIL HERNANDEZ DULCE MARIA    00000793940026464700000850
201301TEMM5907198Q0TEJEDA MORALES MINERVA MARIA       00001773120059104000000850
201301TITI641219AQ7TINOCO TAPIA MARIA ICELA           00001145870038195700000850
201301TITS680826M12TINOCO TAPIA SANDRA                00001548170051605700000850
201301TOAD690202312TORRES DEL ANGEL DORA ALICIA       00001525380050846000000850
201301TOAR691114TL3TORIBIO AQUINO ROSA                00001200630040021000000850
201301TOCE6510146R8TORRES CARRILLO EMELY              00001489310049643700000850
201301TOCE7309276U0TORIBIO CAMPOS MARIA ELIZABETH     00000895600029853300000850
201301TOCJ770302IH9TORRES CRUZ JORGE ENRIQUE          00001223380040779300000850
201301TOHD570920L32TORRES HERRERA DIOMEDES            00001084150036138300000850
201301TOLC710714CU3TORRES LUIS CARMEN                 00001202990040099700000850
201301TOMB650304AJ5TZOPITL MIXCOHUA BEATRIZ           00001027910034263700000850
201301TOME680324G99TOLENTINO MELCHI ELIZABETH         00001129020037634000000850
201301TOOC760129995TORRES ORTIZ CARLOS MANUEL         00001412990047099700000850
201301TOSG721008HS1DEL TORO SANCHEZ MARIA GABRIELA    00001112170037072300000850
201301TUGM581007SW8TUYIN GARCIA MATEO                 00001658020055267300000850
201301TUMF710125H67TRUJILLO MUNIZ FERNANDO            00000830350027678300000850
201301TURS6607223Z3TRUJILLO ROMERO SUSANA             00001095320036510700000850
201301UCFJ760219VD3UC FERRAEZ JENNY                   00001363690045456300000850
201301VACJ7112282EAVAZQUEZ CASTILLO JESSICA           00001145870038195700000850
201301VADN6609264X9VALENCIA DOMINGUEZ NORA            00000893980029799300000850
201301VAEA750610CM9VASQUEZ EUGENIO ALEJANDRO          00000952720031757300000850
201301VAGD770128FH1VAZQUEZ GOMEZ DAMARIS              00004282610142753700000850
201301VAGJ520214G60VALENCIA GONZALEZ JAVIER VALENTIN  00002233380074446000000850
201301VAJR590324LM5VAZQUEZ JAMESON ROSA MARIA         00001858150061938300000850
201301VALA760113NM8VARGAS LOPEZ AMALIA                00000510980017032700000850
201301VAMC631112999VAZQUEZ MURILLO JOSE CARLOS        00001843780061459300000850
201301VAME691127390VASQUEZ MONTES EDGAR RODOLFO       00001933550064451700000850
201301VAMJ661003L38VALDES MARTINEZ JUAN JOSE          00000269060005381200000850
201301VAMJ760216DN5VALDES MARQUEZ JORGE LUIS          00000758340025278000000850
201301VANB660326984VARGAS NUNEZ BRAULIO               00001582390052746300000850
201301VAPI710227HDAVALENCIA PAVON IVONNE              00001327350044245000000850
201301VARB8207132N2VALLEJOS RIOS BIANCA BERENICE      00000159680005322700000850
201301VASP610224TD0VALLE SANTIAGO PORFIRIA            00005083710169457000000850
201301VASR7809076H1VAZQUEZ SOLANO REGINA              00001587870052929000000850
201301VAVC750411ST7VASQUEZ VASQUEZ CRISTIAN GUILLERMO 00001778420059280700000850
201301VAVR711017Q39VASQUEZ VASQUEZ RODOLFO            00002767830092261000000850
201301VEBJ761020957VELEZ BAUTISTA JORGE CRISTOFER     00001336070044535700000850
201301VECA681002D61VEGA CORTES MARIA DE LOS ANGELES   00001628930054297700000850
201301VEGJ660902L19VELA GONZALEZ JORGE ALBERTO        00003689530122984300000850
201301VEGL600920885VELASQUEZ GARCIA JOSE LUIS         00001947060064902000000850
201301VEMJ620906H57VERA MARTINEZ JORGE LUIS           00002353450078448300000850
201301VEMR680103FX9VELAZQUEZ MORALES MARIA DEL ROSARIO00001455800048526700000850
201301VENM610815KA4VELAZQUEZ NAVARRO MONICA MARIA     00001790330059677700000850
201301VEPR650914FJ6VELA PORTILLA RUTH                 00001112170037072300000850
201301VERE6905087R1VELA ROSADO ELIEL OMAR             00000958800031960000000850
201301VESN700413J55VELA SANTOS NORMA                  00001686250056208300000850
201301VIFA7105113N5VILLEGAS FUENTES ANA CRUZ          00003601060120035300000850
201301VILA6309169W4VINAGRE LOPEZ MA. ASUNCION         00003010570100352300000850
201301VIMA690726Q91VILLEGAS MORGADO ALMA OFELIA       00001794390059813000000850
201301VIME640715AK6VICENTE MORALES ENRIQUE            00002005960066865300000850
201301VIMP730426U70VILLA MARTINEZ MARIA DEL PILAR     00000964490032149700000850
201301VIMS780806QU1VITE MARTINEZ SAHELY               00001820820060694000000850
201301VISD6610091P6VILLEGAS SANCHEZ DORA MARIA        00001535850051195000000850
201301VITF670306TQ0VIVEROS TORRES FELICIANO           00001220930040697700000850
201301XOCR7801028A3XOTLA COLORADO ROBERTO             00000799150026638300000850
201301ZAAP720427SR1ZALETA ALEJANDRE PEDRO DAVID       00002850400095013300000850
201301ZABL690419JV1ZARATE BAUTISTA LEONOR             00004163210138773700000850
201301ZABR7105293X8ZARATE BAUTISTA RAYMUNDO           00001336070044535700000850
201301ZACH7303254M8ZAPATA CORTES HUMBERTO             00001100270036675700000850
201301ZAHI630731BV8ZARATE HUESCA IGNACIO              00001061610035387000000850
201301ZAOE6104188L7ZARATE ORDONEZ EDELMIRA            00001858150061938300000850
201301ZARA700520MK5ZAMORA REGALADO ALEJANDRO          00001133620037787300000850
201301ZAVT5002069A7ZAMUDIO VAZQUEZ TITA               00001904640063488000000850
201301ZEGT680115F70ZEPEDA GUTIERREZ MARIA TERESA      00002455300081843300000850
201301ZEKM660922NG2ZENTENO KIN MAURICIO               00000956600031886700000850
